:020000040800F2
:10000000000003203D3A0008CD220008CF2200085E
:10001000D1220008D3220008D522000800000000E9
:10002000000000000000000000000000D7220008CF
:10003000D922000800000000DB220008DD220008B1
:100040008D3A00088D3A00088D3A0008E522000834
:100050008D3A00088D3A00088D3A00088D3A000864
:100060008D3A00088D3A00088D3A00088D3A000854
:100070008D3A00088D3A00088D3A00088D3A000844
:100080008D3A00088D3A00088D3A00088D3A000834
:100090008D3A00088D3A00088D3A00088D3A000824
:1000A0008D3A00088D3A00088D3A00088D3A000814
:1000B0008D3A00088D3A00088D3A00088D3A000804
:1000C0008D3A00088D3A00088D3A00088D3A0008F4
:1000D0008D3A0008F5220008592300088D3A0008DF
:1000E0008D3A00088D3A00088D3A00088D3A0008D4
:1000F0008D3A00088D3A00088D3A00088D3A0008C4
:100100008D3A00088D3A00088D3A00088D3A0008B3
:100110008D3A00088D3A00088D3A00088D3A0008A3
:100120008D3A00088D3A00088D3A00088D3A000893
:100130008D3A00088D3A00088D3A00088D3A000883
:100140008D3A00088D3A00088D3A00088D3A000873
:100150008D3A00088D3A00088D3A00088D3A000863
:100160008D3A00088D3A00088D3A00088D3A000853
:100170008D3A00088D3A00088D3A00080000000012
:100180008D3A00088D3A00088D3A00088D3A000833
:100190008D3A00088D3A00088D3A00088D3A000823
:0C01A0008D3A00088D3A00088D3A0008E6
:1001B00010B5054C237833B9044B13B10448AFF3A1
:1001C00000800123237010BD740000200000000097
:1001D0003458000808B5034B1BB103490348AFF37B
:1001E000008008BD0000000078000020345800089E
:1001F00010F8012B11F8013B012A28BF9A42F7D0D1
:10020000D01A7047034613F8012B002AFBD1181AA5
:1002100001387047000000000000000000000000EE
:1002200001F0FF01102A2BDB10F0070F08D010F8A7
:10023000013B013A8B422DD010F0070F42B3F6D1AB
:10024000F0B441EA012141EA014122F007047FF0C4
:1002500000070023F0E80256083C85EA010586EA1B
:10026000010685FA47F5A3FA87F586FA47F6A5FA57
:1002700087F68EB9EED1F0BC01F0FF0102F0070263
:1002800032B110F8013B013A83EA010313B1F8D10E
:100290000020704701387047002D06BF35460338EF
:1002A000073815F0010F07D1013015F4807F02BF28
:1002B000013015F4C03F0130F0BC0138704700BF79
:1002C00053B94AB9002908BF00281CBF4FF0FF31BD
:1002D0004FF0FF3000F074B9ADF1080C6DE904CEB9
:1002E00000F006F8DDF804E0DDE9022304B0704711
:1002F0002DE9F047089D04468E46002B4DD18A42D9
:10030000944669D9B2FA82F252B101FA02F3C2F10B
:10031000200120FA01F10CFA02FC41EA030E94409C
:100320004FEA1C48210CBEFBF8F61FFA8CF708FBBD
:1003300016E341EA034306FB07F199420AD91CEB95
:10034000030306F1FF3080F01F81994240F21C81C7
:10035000023E63445B1AA4B2B3FBF8F008FB10330F
:1003600044EA034400FB07F7A7420AD91CEB040444
:1003700000F1FF3380F00A81A74240F20781644414
:10038000023840EA0640E41B00261DB1D440002399
:10039000C5E900433146BDE8F0878B4209D9002DFD
:1003A00000F0EF800026C5E9000130463146BDE887
:1003B000F087B3FA83F6002E4AD18B4202D38242F1
:1003C00000F2F980841A61EB030301209E46002DA0
:1003D000E0D0C5E9004EDDE702B9FFDEB2FA82F2F5
:1003E000002A40F09280A1EB0C014FEA1C471FFA53
:1003F0008CFE0126200CB1FBF7F307FB131140EA3A
:1004000001410EFB03F0884208D91CEB010103F106
:10041000FF3802D2884200F2CB804346091AA4B2C8
:10042000B1FBF7F007FB101144EA01440EFB00FE9C
:10043000A64508D91CEB040400F1FF3102D2A64501
:1004400000F2BB800846A4EB0E0440EA03409CE7A0
:10045000C6F12007B34022FA07FC4CEA030C20FA4D
:1004600007F401FA06F31C43F9404FEA1C4900FA6D
:1004700006F3B1FBF9F8200C1FFA8CFE09FB1811EA
:1004800040EA014108FB0EF0884202FA06F20BD95D
:100490001CEB010108F1FF3A80F08880884240F2AD
:1004A0008580A8F102086144091AA4B2B1FBF9F0F1
:1004B00009FB101144EA014100FB0EFE8E4508D9EC
:1004C0001CEB010100F1FF346CD28E456AD9023871
:1004D000614440EA0840A0FB0294A1EB0E01A14256
:1004E000C846A64656D353D05DB1B3EB080261EBC4
:1004F0000E0101FA07F722FA06F3F1401F43C5E99E
:10050000007100263146BDE8F087C2F12003D840D3
:100510000CFA02FC21FA03F3914001434FEA1C4715
:100520001FFA8CFEB3FBF7F007FB10360B0C43EA07
:10053000064300FB0EF69E4204FA02F408D91CEBB7
:10054000030300F1FF382FD29E422DD902386344B5
:100550009B1B89B2B3FBF7F607FB163341EA034155
:1005600006FB0EF38B4208D91CEB010106F1FF38A4
:1005700016D28B4214D9023E6144C91A46EA00469B
:1005800038E72E46284605E70646E3E61846F8E62D
:100590004B45A9D2B9EB020864EB0C0E0138A3E776
:1005A0004646EAE7204694E74046D1E7D0467BE757
:1005B000023B614432E7304609E76444023842E7CF
:1005C000704700BF30B4044608460A2A03D000230F
:1005D0000B7030BC704734B1002C09DB0A46002197
:1005E00042F2107318E030230B7000234B70F0E7D9
:1005F0000A462D2302F8013B6442F0E7303502F849
:10060000015B94FBF3F103FB11440121084D85FBD1
:1006100003C5DB17C3EBA503002B06DD94FBF3F545
:10062000002DEBD10029F1D0E8E700231370D0E7CB
:10063000676666660EB430B586B0044609AB53F8FB
:10064000045B01930CE06B786E2B13D0722B16D1E8
:10065000244B1B7863600235236813F0800FFBD0B6
:100660002B78002B39D05C2BEDD0252B09D0636083
:100670000135F1E71B4B5B7863600235ECE702352F
:10068000EAE76B78642B11D0732B24D1019B1A1DE0
:1006900001921A6805E06360236813F0800FFBD0B5
:1006A00001321378002BF6D10235D5E7019B1A1DD4
:1006B00001920A2202A91868FFF784FF02AA05E046
:1006C0006360236813F0800FFBD001321378002B96
:1006D000F6D10235C0E70235BEE706B0BDE83040CE
:1006E00003B070470000002070B50446002240218E
:1006F0001A4802F044FD1A4D00220221284602F059
:100700003EFD00220121284602F039FD082212E0B8
:1007100000222021134802F032FD114E0122114621
:10072000304602F02CFD00220121304602F027FD68
:100730006400E4B22A46531EDDB242B114F0800FC9
:10074000E6D001222021074802F019FDE5E7012249
:100750004021024802F013FD70BD00BF001C0240A2
:10076000001002400008024070B5044600224021FB
:100770001A4802F004FD1A4D01220221284602F017
:10078000FEFC00220121284602F0F9FC082212E0BA
:1007900000222021134802F0F2FC114E01221146E2
:1007A000304602F0ECFC00220121304602F0E7FC6A
:1007B0006400E4B22A46531EDDB242B114F0800F49
:1007C000E6D001222021074802F0D9FCE5E701220A
:1007D0004021024802F0D3FC70BD00BF001C024063
:1007E000001002400008024070B50446002240217B
:1007F0001A4802F0C4FC1A4D01220221284602F0D8
:10080000BEFC00220121284602F0B9FC102212E0B1
:1008100001222021134802F0B2FC114E01221146A0
:10082000304602F0ACFC00220121304602F0A7FC69
:100830006400A4B22A46531EDDB242B114F4004F44
:10084000E6D100222021074802F099FCE5E70122C9
:100850004021024802F093FC70BD00BF001C024022
:100860000010024000080240F8B507460D46164643
:100870001C462A20FFF738FF0020FFF775FFB81C41
:10088000C0B2FFF771FF0020FFF76EFFB01CC0B2CF
:10089000FFF76AFF2B20FFF727FF0020FFF764FF19
:1008A000681CC0B2FFF760FF0020FFF75DFF601C0F
:1008B000C0B2FFF759FF2C20FFF716FFF8BD70B547
:1008C00005469F237F2200210846FFF7CDFF002623
:1008D00009E0A8B2FFF788FF0134E4B214F0800FFA
:1008E000F7D00136F6B29F2E01D80024F6E770BD8E
:1008F0002DE9F84381460F4615469846BDF820601D
:10090000013B013AFFF7B0FF08E03046FFF76CFF0C
:100910000134A4B2AC42F8D30137BFB2474501D28B
:100920004C46F7E7BDE8F88310B5904C0022102143
:10093000204602F024FC0A2002F024FD01221021AE
:10094000204602F01CFC782002F01CFD1120FFF76D
:10095000CBFE782002F016FDB120FFF7C5FE012086
:10096000FFF702FF2C20FFF7FFFE2D20FFF7FCFE14
:10097000B220FFF7B9FE0120FFF7F6FE2C20FFF7AB
:10098000F3FE2D20FFF7F0FEB320FFF7ADFE0120B0
:10099000FFF7EAFE2C20FFF7E7FE2D20FFF7E4FE2D
:1009A0000120FFF7E1FE2C20FFF7DEFE2D20FFF7F0
:1009B000DBFEB420FFF798FE0720FFF7D5FEC0202E
:1009C000FFF792FEA220FFF7CFFE0220FFF7CCFE3A
:1009D0008420FFF7C9FEC120FFF786FEC520FFF780
:1009E000C3FEC220FFF780FE0A20FFF7BDFE0020F5
:1009F000FFF7BAFEC320FFF777FE8A20FFF7B4FEA9
:100A00002A20FFF7B1FEC420FFF76EFE8A20FFF711
:100A1000ABFEEE20FFF7A8FEC520FFF765FE0E2017
:100A2000FFF7A2FE3620FFF75FFEC020FFF79CFE17
:100A3000E020FFF759FE0F20FFF796FE1A20FFF780
:100A400093FE0F20FFF790FE1820FFF78DFE2F205A
:100A5000FFF78AFE2820FFF787FE2020FFF784FE9D
:100A60002220FFF781FE1F20FFF77EFE1B20FFF7ED
:100A70007BFE2320FFF778FE3720FFF775FE00206E
:100A8000FFF772FE0720FFF76FFE0220FFF76CFEF4
:100A90001020FFF769FEE120FFF726FE0F20FFF789
:100AA00063FE1B20FFF760FE0F20FFF75DFE17209F
:100AB000FFF75AFE3320FFF757FE2C20FFF754FEB6
:100AC0002920FFF751FE2E20FFF74EFE3020FFF7C2
:100AD0004BFE3020FFF748FE3920FFF745FE3F2050
:100AE000FFF742FE0020FFF73FFE0720FFF73CFE26
:100AF0000320FFF739FE1020FFF736FE2A20FFF70C
:100B0000F3FD0020FFF730FE0220FFF72DFE00204E
:100B1000FFF72AFE8220FFF727FE2B20FFF7E4FDD8
:100B20000020FFF721FE0320FFF71EFE0020FFF745
:100B30001BFE8320FFF718FEF020FFF7D5FD0120F4
:100B4000FFF712FEF620FFF7CFFD0020FFF70CFEA7
:100B50003A20FFF7C9FD0520FFF706FE2920FFF721
:100B6000C3FD4FF6FF70FFF7AAFE10BD000802405C
:100B700010B50B4614460246FFF776FE2046FFF7F7
:100B800033FE10BD2DE9F04F85B0BDF8384001941B
:100B90008046A2EB000A8946A3EB010BBAF1000FD5
:100BA0000DDD01220292BBF1000F14DD012303933E
:100BB000DA451CDD564600252F462C461BE0BAF1CF
:100BC000000F05D0A0EB020A4FF0FF320292EAE7D5
:100BD000CDF808A0E7E7BBF1000F05D0A1EB030BB0
:100BE0004FF0FF330393E3E7CDF80CB0E0E75E4648
:100BF000E1E70134A4B2B44213DC019A1FFA89F18F
:100C00001FFA88F0FFF7B4FF57445D44BE4202DA92
:100C1000BF1B029B9844AE42EBDAAD1B039B994489
:100C2000E7E705B0BDE8F08F2DE9F04F85B0009003
:100C30008A4603921E4690460027474556DC1FFA17
:100C400088F5009B5B1B98B2BCB2AAEB040B1FFAA1
:100C50008BFB324659460190FFF78AFF009A05EB5D
:100C600002091FFA89F9324659464846FFF780FFC4
:100C70000099A1EB040B1FFA8BFB05EB0A039BB257
:100C80003246029319465846FFF772FFAAEB050554
:100C9000ADB2324629465846FFF76AFF04EB0A0B0D
:100CA0001FFA8BFB324659464846FFF761FF009A10
:100CB0001444A4B2324629462046FFF759FF324673
:100CC00002992046FFF754FF324659460198FFF734
:100CD0004FFF013708FB08F307FB0733039A02FBBA
:100CE00002F29342A9DD08F1FF38A6E705B0BDE89E
:100CF000F08F00002DE9F04F87B0834603910093F9
:100D0000BDF8403002939DF8444001949DF848900E
:100D1000670814F00E0318BF012303EB141303FB41
:100D200004F30493203AD3B2059300EB54020B462C
:100D30002344013B013AFFF797FD5E464FF0000A5E
:100D4000554649E0059B03EB4303344A02EB83031A
:100D500013F80A8000241DE0314B059A03EB0213BF
:100D600013F80A80F6E7059B03EB43032D4A02EBD9
:100D7000031313F80A80EDE70298FFF735FD0135FC
:100D8000EDB2B5FBF7F307FB135313F0FF033FD0AE
:100D90000134E4B2072C1BD8B9F1000F08D148FA8E
:100DA00004F313F0010FE7D00098FFF71DFDE6E70D
:100DB00048FA04F313F0010F24D10136B6B2A6EBC2
:100DC0000B039F42E4D1039B01339BB203935E4626
:100DD0000AF1010A1FFA8AFA049B9A451AD2019B6A
:100DE0000C2BAFD0019B102BB6D0019B182BBAD087
:100DF000019B202B0ED10C4B059A03EB821313F8A9
:100E00000A80A7E7009A03993046FFF7B1FED4E7BE
:100E10001D46DDE707B0BDE8F08F00BF5858000859
:100E2000CC5C0008BC6200088C7400082DE9F04717
:100E300084B00446884615461F46BDF830A09DF88C
:100E400034609DF838900DE0CDF808900196CDF80B
:100E500000A03B4641462046FFF74CFF04EB5604FA
:100E6000A4B201352A78002AEED104B0BDE8F0879B
:100E70002DE9F843074689469046002612E04FF6D2
:100E8000FF70FFF7B1FC6D080134E4B2072C07D8FE
:100E900015F0010FF3D04FF47840FFF7A5FCF2E70F
:100EA0000136F6B20F2E0ED809EB06010B46FA1DDD
:100EB0003846FFF7D9FCA8F12003044A02EB0313DC
:100EC0009D5D0024E2E7BDE8F88300BFCC8E0008FA
:100ED0002DE9F04180460F4615461E4600242A5D46
:100EE0005AB108EBC400394680B2FFF7C1FF0134A4
:100EF000A4B21FFA86FCA445F1D2BDE8F0812DE929
:100F0000F04F83B0924600939DF830300193BDF8C6
:100F100034604FEAD20802FB03F2013A01EB0A0304
:100F2000013B0244FFF7A0FC4FF0000B24E04FF61A
:100F3000FF70FFF759FC002C09DD2B78013C2341A1
:100F400013F0010FF3D03046FFF74EFCF3E7013505
:100F50000137B84501DD0824EDE708FB0AF3A3EBF0
:100F600008031D444B4603F1FF395FFA89F90BB1C1
:100F70000027EEE70BF1010BDA4504DD009B0BFBCC
:100F80000835019BEFE703B0BDE8F08F70B588B07E
:100F9000002400941D4B1A6B42F001021A631A6B75
:100FA00002F001020092009A01941A6B42F00402CE
:100FB0001A631A6B02F004020192019A02941A6BEE
:100FC00042F080021A631B6B03F080030293029BC2
:100FD000012603960494022305930325069503A98D
:100FE0000B4801F0C7FF4FF4005303930494059698
:100FF000069503A9074801F0BDFF0C2303930DEBF1
:101000000301054801F0B6FF08B070BD003802408A
:101010000000024000080240001C024008B5012800
:1010200019D0344B1B783BB30821334802F0A0F8A9
:1010300020B10421304802F09BF880B91E2002F054
:10104000A1F92C4B00221A7008212B4802F090F8CD
:10105000D0B9012017E0274B01221A70E1E74FF4C5
:101060000051264802F084F80028E7D001212448E6
:1010700002F07EF80128E1D008211F4802F078F83C
:10108000012814D0002008BD04211B4802F070F88C
:1010900038B34FF40051194802F06AF818B301212F
:1010A000174802F065F801281FD00020EBE7042163
:1010B000114802F05DF8012801D00020E3E74FF469
:1010C00000510E4802F054F8012801D00020DAE760
:1010D00001210B4802F04CF848B9064B01221A7066
:1010E000D1E70220CFE70320CDE70420CBE70020A3
:1010F000C9E700BF02000020001C024000080240B7
:101100000000024008B50B4802F074FD05230A4AAE
:101110000A49002000F036FE0028F7D0084802F007
:1011200069FD00F073FE0028FBD0064B00221A7008
:1011300008BD00BFBC940008DC940008E0940008DF
:10114000F49400080300002008B50B4802F052FD9B
:1011500005230A4A0A49002000F014FE0028F7D0AF
:10116000084802F047FD00F051FE0028FBD0064B76
:1011700001221A7008BD00BFBC940008DC9400086E
:1011800018950008F49400080300002008B50B4BE4
:101190001B7803B108BD00F053FE4FF4FA73002230
:1011A0000749084800F0C6FC0028F6D0002000F0EF
:1011B000D1FD0028FAD0FFF7C7FFEBE703000020BE
:1011C000289500082C95000808B50B4B1B7803B92F
:1011D00008BD00F035FE4FF4FA73002207490848B5
:1011E00000F0A8FC0028F6D0002000F0B3FD002895
:1011F000FAD0FFF787FFEBE70300002028950008EF
:101200002C950008F0B589B04FF478430193022380
:101210000093714B102260210020FFF770FE3A22EC
:1012200060212020FFF724FE6C496D48FEF7E0FFA7
:10123000002842D06B496A48FEF7DAFF002848D000
:101240004FF47843019302230093674B10227021DF
:101250000020FFF754FE3A2270212020FFF708FEFD
:1012600062496348FEF7C4FF00283ED061496048E8
:10127000FEF7BEFF00287ED05F495D48FEF7B8FF4D
:10128000002800F084805D495948FEF7B1FF00282E
:1012900000F089805A495648FEF7AAFF002840F01E
:1012A0008E804FF47843019301230093554B102215
:1012B00070213020FFF723FE22E04FF478430193A2
:1012C00002230093504B102260213020FFF717FEBD
:1012D000B6E74FF478430193022300934B4B10225F
:1012E00060213020FFF70BFEAAE74FF4784301930B
:1012F00001230093464B102270213020FFF7FFFDA1
:10130000374C04F11402434903A802F07BFC424D20
:101310004FF478470197022600962B461022802131
:101320000020FFF7ECFD3A2280212020FFF7A0FDEE
:1013300003A8FEF767FFC3B203AA80213020FFF79E
:10134000C7FD0197009605F180031022902100202F
:10135000FFF7D5FD3A2290212020FFF789FD1E34AA
:101360002046FEF74FFFC3B2224690213020FFF700
:10137000AFFD09B0F0BD4FF4784301930223009311
:10138000264B102270213020FFF7B9FDB8E74FF44B
:101390007843019302230093214B102270213020C7
:1013A000FFF7ADFDACE74FF47843019302230093C0
:1013B0001C4B102270213020FFF7A1FDA0E74FF455
:1013C00078430193012300930E4B102270213020AB
:1013D000FFF795FD94E700BF4C8C00083895000896
:1013E0009000002044950008CC8C00084C95000823
:1013F0009A00002054950008609500086C9500083C
:10140000749500082C8E00084C8E00088C8E000805
:101410004C8D00087C9500088C8C00086C8D0008B1
:10142000AC8D0008EC8D00082DE9F041204D2149DC
:10143000284602F078FC204C204E224631460730E8
:1014400002F000FC21461E4802F04EFB1D492846D2
:1014500002F069FC04F10A0842463146073002F006
:10146000F1FB194F4146384602F03EFB174928462A
:1014700002F059FC04F11408424631460E3002F0E5
:10148000E1FB4146384602F02FFB1149284602F0A5
:101490004AFC1E3422460F490E3002F0D3FB21468F
:1014A0000D4802F021FBFFF7ADFEBDE8F08100BF63
:1014B0004C020020809500089000002088950008CC
:1014C000909500089C950008A4950008B095000828
:1014D000BC950008C8950008D0950008F0B589B003
:1014E0001749184802F01FFC03AA17490D3002F0F3
:1014F000A9FB164E3246164903A802F0A3FB154C71
:10150000A31C0093631C22461349304602F09AFB49
:101510000025E5602561114F2A462146384602F034
:10152000EEF82A460E49384602F09FF92A460D4940
:10153000384602F0C0F9304602F05CFB09B0F0BD5D
:10154000DC9500084C02002088950008CC000020A3
:10155000E8950008D8000020F0950008580A0020FF
:10156000F0000020EC00002030B589B0234C244D61
:1015700000222146284602F078F900222149284617
:1015800002F099F9A3780093637822781E4903A8A2
:1015900002F038FB4FF47843282230214020FFF737
:1015A00043FB002230214020FFF7E2FA00240094A0
:1015B0001223402208211046FFF7E4FA00944E233C
:1015C000402258211046FFF7DDFA009430232222F2
:1015D00019461820FFF7D6FA009430235E221946E8
:1015E0006820FFF7CFFA03A8FEF70CFEC3B203AAE8
:1015F00028212020FFF76CFC09B030BDF00000204E
:10160000580A0020EC000020FC95000830B585B099
:101610001B4D05EB40151B492846FEF7E9FD78B147
:1016200019492846FEF7E4FD00B318492846FEF79D
:10163000DFFD50B9164A174901A802F0E3FA04E0A9
:10164000154A01AB07CA03C31A7000240134E4B27F
:101650004FF47A7001F096FE052C0DD801A92846AA
:1016600000F022FB03460028F0D006E00B4A01AB55
:1016700007CA03C31A70E8E70023184605B030BD57
:1016800008010020089600082096000838960008F7
:1016900048960008EC950008149600082C9600085F
:1016A00070B584B001250295102601964FF6FF73A0
:1016B00000930023824A19461420FFF7B7FB002449
:1016C000009496230A220F211046FFF75BFA00943C
:1016D0000F23762219460C20FFF754FA794B19781C
:1016E00009012346032208310520FFF79DFA4FF632
:1016F000E07300930F230A2221462046FFF7F8F8F3
:10170000714C0E23224631460C20FFF7E1FB0E23DD
:1017100004F1200220210C20FFF7DAFB0E2304F154
:10172000400230210C20FFF7D3FB0E2304F16002AE
:1017300040210C20FFF7CCFB0E2304F18002502146
:101740000C20FFF7C5FB0E2304F1A00260210C2042
:10175000FFF7BEFB0E2304F1C00270210C20FFF73F
:10176000B7FB0E2304F1E00280210C20FFF7B0FB51
:101770002846FFF753FC02281FD1524B1978534BD0
:101780001B78994203D30024204604B070BD0901A0
:101790004FF6FF73032208310520FFF745FA494B46
:1017A00019782944C9B219700901002303220831AC
:1017B0000520FFF739FA0024E6E70120FFF72EFCA9
:1017C00004281BD13F4B1978012901D80024DBE7FD
:1017D00009014FF6FF73032208310520FFF724FAB1
:1017E000384B19780139C9B2197009010023032255
:1017F00008310520FFF718FA0024C5E70120FFF79C
:101800000DFC03284DD00120FFF708FC04460128F9
:10181000BAD14FF478430093A0234B2296210020A5
:10182000FFF766F84FF6FF7500959623802200219A
:101830000846FFF75DF801230293102301930095FA
:101840000023234A3C210520FFF7F0FA1D4B1878AE
:101850000138C0B2FFF7DAFE002895D14FF4784383
:101860000093A023802200210846FFF741F80123BE
:1018700002931023019300950023164A282118464D
:10188000FFF7D4FA4FF47A7001F07CFD0095A023A5
:10189000802200210846FFF72BF8FFF701FF002404
:1018A00072E74FF6FF7300939623802210210B20DE
:1018B000FFF71EF800F038FA0028FBD0002463E799
:1018C000549600080400002008010020480200206F
:1018D000609600087096000810B584B0514802F078
:1018E00089F9514802F086F94FF478430093A02318
:1018F000192296210020FEF7FBFF012402941023F9
:1019000001934FF6FF7300930023484A3C210520C2
:10191000FFF78CFA22462021454801F030FC00F008
:1019200063F90028FBD0434802F064F94FF4784390
:101930000093A023322296210020FEF7D9FF012335
:101940000293102301934FF6FF7300930023374A4D
:101950003C210520FFF76AFA002000F07BF90028FF
:10196000FAD04FF478430093A0234B229621002015
:10197000FEF7BEFF00F0D8F90028FBD04FF6FF734A
:1019800000939623802200210846FEF7B1FFFFF75F
:1019900087FE0028FBD04FF478440094A0236422F3
:1019A00096210020FEF7A4FF234802F023F92348E4
:1019B00002F020F90094A0237D2296210020FEF75A
:1019C00097FF4FF6FF74009496238022002108466B
:1019D000FEF78EFF0123029310230193009400234E
:1019E000174A3C210520FFF721FA002000F0B2F948
:1019F0000028FAD0134802F0FDF80523124A1349D3
:101A0000002000F0BFF90028F7D0114802F0F2F8EA
:101A100000F0FCF90028FBD00E4802F0EBF804B00F
:101A200010BD00BF80960008A0960008B896000878
:101A300000000240C8960008F096000804970008CD
:101A400020970008BC940008DC9400081895000852
:101A5000F494000830970008204BB3F8003413F4D6
:101A6000004F39D010B51E4C54E8003F23F020033E
:101A700044E80032002AF6D11848B0F80034C3F325
:101A80000E03C25402F0B6F8164B1B78C3B9164BBE
:101A90001B78DBB9114BB3F800246FF30E02A3F8E7
:101AA0000024B3F800246FF3CF32A3F8002454E8E5
:101AB000003F43F0200344E80032002AF7D110BD74
:101AC000FFF70CFD074B00221A70E0E7FFF7ACFCB4
:101AD000054B00221A70DDE7704700BF4C02002062
:101AE0000C440040050100200601002010B5064C02
:101AF00001221021204601F042FB00222021204635
:101B000001F03DFB10BD00BF0000024010B5084CC5
:101B100000221021204601F032FB4FF4FA7001F050
:101B200031FC01221021204601F029FB10BD00BF2D
:101B300000000240F8B50D4616461C46264BB3F889
:101B400000246FF30E02A3F8002402462349244820
:101B5000FEF770FD15B3204601F014FC1E4CB4F8DE
:101B60000034C3F30E030027E75421461D4801F05B
:101B7000BBFFB4F8003467F30E03A4F80034B4F8E4
:101B8000003467F3CF33A4F80034A5B19EB12946E1
:101B9000204602F0C8F828B1012014E0002EDAD166
:101BA000012010E03146204602F0BDF808B10120C6
:101BB00009E0002007E03DB12946074802F0B3F8EC
:101BC000003818BF0120F8BD3146034802F0ABF8D9
:101BD000003818BF0120F6E74C0200204C9700089F
:101BE00000440040EC95000870B501221021134814
:101BF00001F0C5FA124801F0FDFF4FF4FA6001F060
:101C0000C1FB0024092C16D821460E4801F06CFFB8
:101C10004FF4FA7300220C490C48FFF78BFF05467E
:101C200020B9FFF773FF0134E4B2EBE7214608481F
:101C300001F05AFF00E00025284670BD0000024078
:101C400054970008649700082895000888970008B2
:101C50008C97000808B501280CD0022812D008B1D2
:101C6000002008BD40F6C4130A4A0B490B48FFF791
:101C700061FFF6E740F6C413064A07490848FFF734
:101C800059FFEEE740F6C413024A03490548FFF73F
:101C900051FFE6E7B897000828950008C4970008A8
:101CA000D0970008DC97000800B59FB002460B46AD
:101CB0000649684601F0A6FF41F288330022044934
:101CC0006846FFF737FF1FB05DF804FBE897000890
:101CD0002895000838B5044600210F4B19704FF4C1
:101CE0009B720E4801F0F8FE0D49204602F01BF8E9
:101CF000044678B10B34084D2A78084B03EB4212A6
:101D00000849204601F09EFF2B780133DBB22B708F
:101D10000A2BE9D938BD00BF480200200801002085
:101D2000FC9700088895000808B54FF4FA73002264
:101D300005490648FFF7FEFE0028F6D00448FFF7E5
:101D4000C9FF012008BD00BF2895000808980008B9
:101D50004C02002000B587B0021E18BF01220749BF
:101D600001A801F04FFF4FF4FA730022044901A8C3
:101D7000FFF7E0FE07B05DF804FB00BF1498000811
:101D800028950008F0B5BBB004460E4617461D4620
:101D900000212191602222A801F09EFE94B1012C25
:101DA00018D0042D1ED821AB2A46114903A801F0F2
:101DB00029FF4FF47A630F4A0F4903A8FFF7BAFED1
:101DC0003BB0F0BD009733460C4A0D4921A801F005
:101DD00019FFE6E7009733460A4A094921A801F0AE
:101DE00011FFDEE721AA084903A801F00BFFE0E795
:101DF0003C9800086098000828950008249800087E
:101E000028980008389800085098000808B54FF442
:101E1000FA73002206490748FFF78CFE00B908BD97
:101E20004FF4FA73044A02490448FFF783FEF6E7C9
:101E30002895000870980008809800088498000889
:101E400008B54FF47A7001F09DFA04490448FEF792
:101E5000F1FB4FF4FA7001F095FA08BD9098000874
:101E60000044004008B501221146024801F0DCFDA3
:101E700008BD00BF580A002072B6FEE700B595B055
:101E80003022002108A801F027FE002303930493C9
:101E90000593069307930193244A116C41F08051F6
:101EA0001164126C02F080520192019A0293204B4D
:101EB0001A6842F440421A601B6803F440430293DC
:101EC000029B052308934FF48033099301230A935F
:101ED00002230E934FF480020F920F221092D82209
:101EE000119212930423139308A800F003FCB0B9D5
:101EF00001F04CF9A8B90F230393022304930023A4
:101F000005934FF4A05306934FF480530793052194
:101F100003A800F03DFE30B915B05DF804FBFFF7F3
:101F2000ABFFFFF7A9FFFFF7A7FF00BF0038024094
:101F30000070004000B583B001F0F8F9FFF79EFF94
:101F400000F04EF800F0CCF800F03CF901F0AAFAED
:101F5000FFF788FFFEF7E8FC4FF6FF70FEF7AFFCD7
:101F6000FFF714F8FFF7C2FDFFF7B6FC4FF6FF705E
:101F7000FEF7A5FC1FE0FFF727F914491448FEF708
:101F800059FB4FF6FF730093A023802260210020AD
:101F9000FEF7AEFC0F4B01221A7011E0FFF7F6F8C6
:101FA0000D490B48FEF746FB0C4B01221A70FFF758
:101FB000DBFAFFF751FD0120FFF730F80128DAD0F6
:101FC0000120FFF72BF80328E8D0F0E794980008E9
:101FD000004400400601002004990008050100208B
:101FE0002DE9F0478AB000240594069407940894DC
:101FF00009940194354B1A6B42F004021A631A6B70
:1020000002F004020192019A02941A6B42F08002DB
:102010001A631A6B02F080020292029A03941A6BFE
:1020200042F001021A631A6B02F001020392039A52
:1020300004941A6B42F010021A631B6B03F0100336
:102040000493049BDFF890A022463021504601F013
:1020500096F8DFF8888022463021404601F08FF85C
:102060001B4F22464021384601F089F8194E22467E
:102070000321304601F083F84FF03009CDF8149079
:10208000012506950794089405A9504600F072FFB3
:10209000CDF8149006950794089405A9404600F0E1
:1020A00069FF4023059306950794089405A93846CF
:1020B00000F060FF0323059306950794089405A993
:1020C000304600F057FF0AB0BDE8F0870038024004
:1020D000001C0240001002400000024000080240C4
:1020E00010B590B0002409940A940B940C940D94AC
:1020F0000E940F9403940494059406940794089402
:102100002B4B5A6C42F010025A645A6C02F01002C7
:102110000292029A1A6B42F001021A631B6B03F0DF
:1021200001030193019B4FF4C063039302230493C3
:10213000032305930723089303A91E4800F032FAEE
:102140001D4BDB681D4B83F8254320225A604FF45A
:10215000E13309930A940B940C940C230D930E9481
:102160000F9404F1804404F5883409A9204600F056
:102170004FF9236923F490432361636923F02A0311
:102180006361E36843F40053E3600D4B53E8002FB1
:1021900042F0200243E800210029F6D153E8002F45
:1021A00042F0100243E800210029F7D110B010BD21
:1021B000003802400000024000ED00E000E100E0D5
:1021C0000C10014030B591B0002409940A940B948E
:1021D0000C940D940E940F94039404940594069417
:1021E00007940894294B1A6C42F400321A641A6C52
:1021F00002F400320292029A1A6B42F001021A6350
:102200001B6B03F001030193019B0C250395022333
:10221000049303230593072308930DEB05011C4842
:1022200000F0C0F91B4BDB681B4B83F826434022B0
:102230005A604FF4E13309930A940B940C940D9572
:102240000E940F94154C09A9204600F0E1F823697B
:1022500023F490432361636923F02A036361E368F5
:1022600043F40053E3600E4B53E8002F42F020028A
:1022700043E800210029F6D153E8002F42F0100274
:1022800043E800210029F7D111B030BD00380240E9
:102290000000024000ED00E000E100E000440040EA
:1022A0000C44004010464FF0000C0AE0064B1B683F
:1022B00013F0400FFAD011F80C20034B5A600CF1C8
:1022C000010C8445F2DB704700100140FEE7FEE799
:1022D000FEE7FEE7FEE770477047704708B501F07C
:1022E0003FF808BD08B5024801F084FB08BD00BFF7
:1022F000580A0020164B1B6813F0200F19D0144BFE
:102300005A68D2B2134BB3F80034C3F30E0340F251
:10231000FE318B420DD80F49B1F80034C3F30E03E0
:1023200003F1010CB1F800046CF30E00A1F80004F5
:10233000CA54074B1B6813F0100F08D0054BB3F8B5
:10234000001441F40042A3F80024014B5B6870477D
:10235000001001405006002008B51B4B1B6813F00D
:10236000200F19D0184B5A68D2B2184BB3F800346A
:10237000C3F30E0340F2FE318B420DD81349B1F87E
:102380000034C3F30E0303F1010CB1F800046CF345
:102390000E00A1F80004CA540B4B1B6813F0100F79
:1023A00010D00A48B0F8003443F40043A0F80034D9
:1023B000054B5B68064901F0B6FC003818BF0120E8
:1023C000044B187008BD00BF004400404C020020C0
:1023D000709900080401002082B0002100910B4B8D
:1023E0005A6C42F480425A645A6C02F48042009261
:1023F000009A01911A6C42F080521A641B6C03F02F
:1024000080530193019B02B0704700BF0038024027
:10241000C36813F4005F01D00120704730B585B068
:1024200004460D46C36823F4164323F00C034A68A0
:10243000C9680A4329690A43A9690A431343C36067
:10244000AB68026922F44052134303616B6942692D
:1024500022F4407213434361684601F009F8484B87
:102460009C4216D0474B9C421AD0474B9C4219D0F5
:10247000464B9C4218D0464B9C4217D0454B9C4241
:1024800016D0454B9C4215D0444B9C4214D00120A1
:1024900073E0039800286FD02B687BB901206CE0B3
:1024A0000298F7E70298F5E70398F3E70298F1E757
:1024B0000298EFE70298EDE70298EBE7AA69B2F518
:1024C000004F2CD0002102184941121841F100019F
:1024D000C90041EA5271D20010184FEA83024FEA54
:1024E000937341F10001FDF7EBFE2D49A1FB0023A1
:1024F0005B091A0192B2642505FB13031B013233F9
:10250000A1FB0313C3F34F1303F0F0010A4492B28B
:1025100003F00F0313449BB2A36000202DE00025BD
:10252000021845EB0501121841F10001C90041EA0A
:102530005271D200101841F10001DA1845EB050381
:10254000FDF7BEFE1649A1FB00235B091A0192B2FA
:10255000642505FB1303DB003233A1FB0313C3F334
:102560004F13590001F4F8710A4492B203F00703C3
:1025700013449BB2A360D0E7012005B030BD00BF7B
:102580000010014000440040004800400014014099
:10259000004C00400050004000780040007C0040AB
:1025A0001F85EB510B6893FAA3F3B3FA83FC56E053
:1025B0008D68826893FAA3F4B4FA84F464004FF04F
:1025C000030E0EFA04F422EA040293FAA3F4B4FA16
:1025D00084F4640005FA04F422438260CC68426803
:1025E00022EA030203FB04F42243426045E093FA2B
:1025F000A3F2B2FA82F2072A15D84D69026A93FA59
:10260000A3F4B4FA84F4A4000F2606FA04F422EA30
:10261000040293FAA3F4B4FA84F4A40005FA04F4CF
:102620002243026241E04C69456A1A0A92FAA2FE0C
:10263000BEFA8EFE4FEA8E0E0F2606FA0EFE25EA31
:102640000E0592FAA2F2B2FA82F2920004FA02F2B3
:102650002A43426229E0002070BD0CF1010C0B6896
:1026600033FA0CF244D0012202FA0CF21340F4D0F7
:1026700070B54A68013A012A9AD9C26893FAA3F45C
:10268000B4FA84F46400032505FA04F422EA04028F
:1026900093FAA3F4B4FA84F464000D6905FA04F41F
:1026A0002243C2604A68022AA1D04A68046893FAA9
:1026B000A3FEBEFA8EFE4FEA4E0E032505FA0EFE6D
:1026C00024EA0E0E93FAA3F3B3FA83F35B0002FA43
:1026D00003F34EEA030303600CF1010C0B6833FAB9
:1026E0000CF2B8D0012202FA0CF21340F4D0C0E789
:1026F00000207047002800F0E08170B582B00446E9
:10270000036813F0010F3BD09F4B9B6803F00C0351
:10271000042B2CD09C4B9B6803F00C03082B21D07E
:102720006368B3F5803F4FD0B3F5A02F52D0964BDE
:102730001A6822F480321A601A6822F480221A6021
:102740006368002B50D000F017FE05468E4B1B68C7
:1027500013F4003F14D100F00FFE401B6428F5D99C
:102760000320B1E1884B5B6813F4800FD8D0864B0F
:102770001B6813F4003F03D06368002B00F09F81B7
:10278000236813F0020F54D07F4B9B6813F00C0F9B
:102790003ED07D4B9B6803F00C03082B33D0E368DD
:1027A000002B68D0794B01221A6000F0E5FD054648
:1027B000754B1B6813F0020F54D100F0DDFD401B78
:1027C0000228F5D903207FE16F4A136843F4803370
:1027D0001360B5E76C4B1A6842F480221A601A68DD
:1027E00042F480321A60ABE700F0C6FD0546664B46
:1027F0001B6813F4003FC3D000F0BEFD401B6428EB
:10280000F5D9032060E1604B5B6813F4800FC6D1FB
:102810005D4B1B6813F0020F03D0E368012B40F0FF
:102820005081594A136823F0F803216943EAC10330
:102830001360236813F0080F42D063696BB3534BE6
:102840000122C3F8802E00F097FD05464E4B5B6FCA
:1028500013F0020F34D100F08FFD401B0228F5D990
:10286000032031E1484A136823F0F803216943EA61
:10287000C1031360DDE7454B00221A6000F07CFDC8
:102880000546414B1B6813F0020FD2D000F074FDD7
:10289000401B0228F5D9032016E13C4B0022C3F867
:1028A000802E00F069FD0546374B5B6F13F0020F79
:1028B00006D000F061FD401B0228F5D9032003E19A
:1028C000236813F0040F77D02F4B1B6C13F0805F3D
:1028D00033D1002301932C4B1A6C42F080521A64BE
:1028E0001B6C03F080530193019B0125284B1B684F
:1028F00013F4807F23D0A368012B34D0052B38D06C
:10290000214B1A6F22F001021A671A6F22F004029B
:102910001A67A368002B3DD000F02EFD06461A4B27
:102920001B6F13F0020F46D100F026FD801B41F211
:1029300088339842F3D90320C6E00025D6E7144A2D
:10294000136843F48073136000F016FD0646104BC5
:102950001B6813F4807FCED100F00EFD801B02288F
:10296000F5D90320B0E0084A136F43F00103136761
:10297000CFE7054B1A6F42F004021A671A6F42F054
:1029800001021A67C5E700BF003802400000474255
:102990000070004000F0F0FC0646524B1B6F13F035
:1029A000020F08D000F0E8FC801B41F28833984207
:1029B000F3D9032088E0EDB9A369002B00F08380F0
:1029C000484A926802F00C02082A51D0022B17D014
:1029D000454B00221A6600F0CFFC0446414B1B68B1
:1029E00013F0007F42D000F0C7FC001B0228F5D98D
:1029F000032069E03B4A136C23F080531364DBE748
:102A0000394B00221A6600F0B7FC0546354B1B68AF
:102A100013F0007F06D000F0AFFC401B0228F5D970
:102A2000032051E0E369226A1343626A43EA821396
:102A3000A26A5208013A43EA0243E26A43EA0263A5
:102A4000284A5360284B01221A6600F095FC044680
:102A5000244B1B6813F0007F06D100F08DFC001B97
:102A60000228F5D903202FE000202DE000202BE0E4
:102A7000012B2BD01B4B5B6803F48001E269914270
:102A800026D103F03F02216A8A4223D1616A47F6C8
:102A9000C0721A40B2EB811F1ED103F44031A26A0A
:102AA0005208013AB1EB024F18D103F07063E26AA9
:102AB000B3EB026F14D1002006E001207047012023
:102AC00002E0012000E0002002B070BD0120FBE721
:102AD0000120F9E70120F7E70120F5E70120F3E7FE
:102AE0000120F1E7003802400000474208B5254BBD
:102AF0009B6803F00C03042B3FD0082B3FD1214BE4
:102B00005A6802F03F025B6813F4800F12D01D4B2D
:102B10005968C1F388111C480023A1FB0001FDF78F
:102B2000CFFB184B5B68C3F3014301335B00B0FB81
:102B3000F3F025E0134B5968C1F3881C4FEA4C11A0
:102B4000B1EB0C006EEB0E0E4FEA8E1343EA90636E
:102B50008101091A63EB0E03DB0043EA5173C900DC
:102B600011EB0C0C43F10003990200234FEA8C2077
:102B700041EA9C51FDF7A4FBD3E7034800E003487A
:102B800008BD00BF0038024040787D010024F400F9
:102B9000002800F09B8070B50D4604464F4B1B6823
:102BA00003F00F038B4208D2CBB24C4A1370136868
:102BB00003F00F038B4240F08B80236813F0020F69
:102BC00017D013F0040F04D0454A936843F4E05340
:102BD0009360236813F0080F04D0414A936843F4CC
:102BE000604393603E4A936823F0F003A1680B436F
:102BF0009360236813F0010F32D06368012B21D05A
:102C00009A1E012A25D9364A126812F0020F61D0A5
:102C100033498A6822F0030213438B6000F0ACFB57
:102C200006462F4B9B6803F00C036268B3EB820FE0
:102C300016D000F0A1FB801B41F288339842F0D9F6
:102C4000032042E0264A126812F4003FE0D101203E
:102C50003BE0234A126812F0007FD9D1012034E012
:102C60001E4B1B6803F00F03AB4207D9EAB21B4BA4
:102C70001A701B6803F00F03AB422DD1236813F0C9
:102C8000040F06D0164A936823F4E053E1680B431F
:102C90009360236813F0080F07D0114A936823F458
:102CA0006043216943EAC1039360FFF71FFF0C4BA8
:102CB0009B68C3F303130B4AD35CD8400A4B1860DC
:102CC0000A4B186800F00CFB002070BD0120704713
:102CD0000120FAE70120F8E70120F6E7003C024076
:102CE000003802407C9900080C00002008000020F9
:102CF00030B583B00446036813F0430F15D1236841
:102D000013F00C0F6AD1236813F0200F40F0BF803E
:102D1000236813F0100F00F0238194F82C20914BBE
:102D2000C3F8E021002003B030BD8F4B00229A662B
:102D300000F022FB05468D4B1B6813F0006F06D098
:102D400000F01AFB431B022BF5D90320EBE72368A5
:102D500013F0010F07D06268A3681B0743EA8213D0
:102D6000824AC2F88430236813F0020F15D07F4ADC
:102D7000D2F884106068E3681B0643EA801301F010
:102D8000E0410B43C2F88430D2F88C3023F01F03AB
:102D9000E16901390B43C2F88C30236813F0400F0E
:102DA0000AD06268E3681B0643EA8213A26843EA1A
:102DB00002736E4AC2F884306B4B01229A6600F0AF
:102DC000DBFA0546694B1B6813F0006F97D100F0E2
:102DD000D3FA401B0228F5D90320A4E7624B002256
:102DE0001A6700F0C9FA0546604B1B6813F0005FD4
:102DF00006D000F0C1FA431B022BF5D9032092E75D
:102E0000236813F0040F16D0584AD2F888102069AE
:102E100063691B0643EA801301F0E0410B43C2F8EB
:102E20008830D2F88C3023F4F853216A013943EA10
:102E30000123C2F88C30236813F0080F14D04B4ADA
:102E4000D2F88830216903F0706343EA8113A169E5
:102E500043EA0173C2F88830D2F88C3023F440334F
:102E6000616A0B43C2F88C303F4B01221A6700F0B5
:102E700083FA05463D4B1B6813F0005F7FF443AFB8
:102E800000F07AFA401B0228F4D903204BE7002314
:102E90000193364B1A6C42F080521A641B6C03F09B
:102EA00080530193019B324A136843F4807313608B
:102EB00000F062FA05462E4B1B6813F4807F06D1A2
:102EC00000F05AFA401B0228F5D903202BE7274BC4
:102ED0001B6F13F4407314D0A26A02F440729A423A
:102EE0000FD0224B1A6F22F440721F490120C1F803
:102EF000400E0020C1F8400E1A671B6F13F0010F3F
:102F000012D1A36A03F44072B2F5407F1DD0174A74
:102F1000936823F4F813936014490B6FA26AC2F309
:102F20000B0213430B67F3E600F026FA05460F4B3E
:102F30001B6F13F0020FE4D100F01EFA401B41F2A8
:102F400088339842F3D90320EDE608498A6822F4D1
:102F5000F81223F0704323F4407313438B60DBE7D4
:102F60000020E0E6001047420000474200380240DF
:102F70000070004000230F2B00F2F18070B582B08A
:102F800061E085685E000324B44025EA0405CC684E
:102F9000B4402C438460456825EA02054C68C4F3BC
:102FA00000129A402A4342605BE0DC08083450F883
:102FB000246003F0070295000F22AA4026EA020EC1
:102FC0000A69AA4042EA0E0240F824205DE0092284
:102FD00000E0002202FA0EF22A430234604D45F866
:102FE0002420604A94686FEA0C0224EA0C054E68BB
:102FF00016F4801F01D04CEA04055A4CA560E46821
:1030000002EA04054E6816F4001F01D04CEA0405DC
:10301000544CE560646802EA04054E6816F4003F0B
:1030200001D04CEA04054F4C6560246822404D688D
:1030300015F4803F01D04CEA04024A4C226001336F
:103040000F2B00F28A8001229A400C6804EA020CDD
:1030500032EA0404F3D14C6804F00304013C012C6F
:103060008FD94A6802F00302032A09D0C4685D00C0
:103070000322AA4024EA02048A68AA402243C260CA
:103080004A6802F00302022A8FD004684FEA430E16
:10309000032202FA0EF224EA02044A6802F0030252
:1030A00002FA0EF2224302604A6812F4403FC6D090
:1030B000002201922C4A546C44F480445464526CB3
:1030C00002F480420192019A9C08A51C244A52F8FD
:1030D000255003F003024FEA820E0F2202FA0EF28D
:1030E00025EA0205214A90423FF473AF02F580625F
:1030F000904222D002F58062904220D002F5806298
:1031000090421ED002F5806290421CD002F580628F
:1031100090421AD002F58062904218D002F5806287
:10312000904216D002F58062904214D002F580627F
:1031300090423FF44CAF0A224CE701224AE70222B8
:1031400048E7032246E7042244E7052242E7062235
:1031500040E707223EE708223CE702B070BD704717
:1031600000380140003C01400038024000000240AD
:103170000369194201D001207047002070470AB14D
:1031800081617047090481617047000010B582B009
:1031900000230193194B1A6C42F080521A641B6C85
:1031A00003F080530193019B154B01221A6400F038
:1031B000E3F80446134B5B6813F4803F08D100F03A
:1031C000DBF8001BB0F57A7FF4D9032002B010BD04
:1031D0000B4B01225A6400F0CFF80446094B5B68A0
:1031E00013F4003F07D100F0C7F8001BB0F57A7F59
:1031F000F4D90320EAE70020E8E700BF00380240E6
:1032000000000E4200700040074AD36823F4E063D8
:103210001B041B0C000200F4E060034343F0BF6397
:1032200043F40033D360704700ED00E000B5194B64
:10323000DB68C3F30223C3F1070CBCF1040F28BF02
:103240004FF0040C03F1040EBEF1060F18D9033B36
:103250004FF0FF3E0EFA0CFC21EA0C0199400EFAE9
:1032600003F322EA0303194300280BDB0901C9B267
:1032700000F1604000F5614080F800135DF804FB48
:103280000023E5E700F00F000901C9B2024B195411
:10329000F4E700BF00ED00E014ED00E0002807DBDC
:1032A00000F01F02400901239340024A42F82030F7
:1032B000704700BF00E100E00138B0F1807F0BD221
:1032C0004FF0E0235861054AF02182F823100020D6
:1032D000986107221A6170470120704700ED00E0F5
:1032E00010B504460E4B18784FF47A73B3FBF0F325
:1032F0000C4A1068B0FBF3F0FFF7DEFF68B90F2C43
:1033000001D901200AE0002221464FF0FF30FFF7EB
:103310008DFF054B1C60002000E0012010BD00BFA8
:10332000050000200C0000200800002008B50B4B11
:103330001A6842F400721A601A6842F480621A60D5
:103340001A6842F480721A600320FFF75DFF0F20B5
:10335000FFF7C6FFFFF740F8002008BD003C024021
:10336000034A1168034B1B780B441360704700BF7E
:10337000540A002005000020014B1868704700BF68
:10338000540A002038B50446FFF7F6FF0546B4F1AD
:10339000FF3F02D0044B1B781C44FFF7EDFF401B9E
:1033A000A042FAD338BD00BF05000020034B9B6844
:1033B000C3F30313024AD35CD8407047003802407D
:1033C0007C990008034B9B68C3F38223024AD35CB9
:1033D000D8407047003802408C990008034B9B6826
:1033E000C3F34233024AD35CD840704700380240EE
:1033F0008C9900080F4B5B6803F4800323B90E4BD4
:10340000082803D0002070470C4BF9E7094A5068A0
:1034100000F03F00B3FBF0F05368C3F3881303FBE5
:1034200000F05368C3F3014301335B00B0FBF3F0DA
:10343000704700BF003802400024F40040787D014E
:1034400008B5084B9B6803F00C03042B05D0082B30
:1034500005D10820FFF7CEFF02E0034800E0034853
:1034600008BD00BF0038024040787D010024F40010
:1034700010B50446FFF7E4FF2060FFF797FF606098
:10348000FFF7A0FFA0606068FFF7A8FFE06010BD35
:10349000034AD2F8883043F47003C2F8883070478A
:1034A00000ED00E000B587B0002301930293039381
:1034B0000493059300932848284A026043607F22C2
:1034C0008260FF22C26003614361836100F0C5F83E
:1034D000002834D10121204800F0ABFA01282BD07C
:1034E00013238DF8043019238DF8053000228DF850
:1034F00006200492059201A9174800F000F908BBC4
:1035000006238DF800308DF801308DF802300B2342
:103510008DF80330002269460F4800F04FF9A0B93A
:103520000D480268D368DBB263F49063D360042271
:10353000012100F0DFF958B907B05DF804FBFEF790
:103540009BFCC7E7FEF798FCDAE7FEF795FCE7E798
:10355000FEF792FCF0E700BF580A00200028004068
:1035600010B58CB0044630220021684600F0B4FA51
:1035700022680F4B9A4201D00CB010BD202300935B
:103580004FF480730A936846FFF7B2FB60B9094BAA
:103590000122C3F83C2E002211460320FFF746FE0D
:1035A0000320FFF77BFEE7E7FEF766FCEFE700BFCF
:1035B000002800400000474238B504460268D3683E
:1035C00023F0A003D360FFF7D7FE05462368DB682E
:1035D00013F0200F07D1FFF7CFFE401BB0F57A7F25
:1035E000F4D9032000E0002038BD70B50368DA6824
:1035F00012F0400F02D00025284670BD0446DA685C
:1036000042F08002DA60FFF7B7FE06460025236825
:10361000DB6813F0400FEFD1002DEDD1FFF7ACFECA
:10362000831BB3F57A7FF2D9042363770125EEE794
:103630000268D36823F08003D36003689B6813F0AB
:10364000200F01D00020704710B50446FFF7B4FFEB
:1036500010B104236377012010BD002841D010B5BC
:103660000446437FE3B1022363772368CA225A6288
:10367000236853225A622046FFF7B7FFA0B158B91A
:103680002268136C23F4802313642268136CA169ED
:103690000B431364012363772368FF225A6210BD32
:1036A0000377FFF75DFFDEE72268936823F4E0030A
:1036B00023F04003936021688A68636820690343AC
:1036C0006069034313438B602368E2681A612268D0
:1036D0001369A16843EA014313612046FFF7A8FF7D
:1036E000CDE701207047002303E00133DBB20A3845
:1036F000C0B20928F9D81B01DBB218437047037F19
:10370000012B59D070B504460E46012303770223DE
:1037100043774ABB03689B6813F0400F01D1002335
:10372000CB703078FFF7DFFF05047078FFF7DBFF21
:1037300045EA0025B078FFF7D6FF0543F07845EA63
:1037400080552368CA225A62236853225A6220464F
:10375000FFF74BFFD0B108B9012363772368FF223D
:103760005A620023237770BD03689B6813F0400FF3
:1037700001D10023CB70337875782D0245EA0345DB
:10378000B0780543F07845EA8055DAE7236805F01C
:103790007F3525F0FE451D602268936823F4802361
:1037A000936021688B68F2683069024313438B6031
:1037B0002046FFF73DFFCEE702207047037F012B35
:1037C00048D070B504460E460123037702234377A1
:1037D0003AB94B7813F0100F03D003F0EF030A331C
:1037E0004B7012BBF078FFF77EFF05047078FFF78F
:1037F0007AFF45EA0025B078FFF775FF054330787A
:1038000045EA40352368CA225A62236853225A6225
:103810002046FFF7EAFE98B108B9012363772368D1
:10382000FF225A620023237770BDF37875782D024A
:1038300045EA0345B0780543307845EA4035E1E78D
:10384000236825F07F4525F0C0055D602046FFF721
:10385000EFFEE1E702207047030903EB830300F06A
:103860000F0000EB4300C0B2704770B503689B6A5D
:103870004B6003681B69C3F30E038B6003681B680E
:10388000C3F305400870C3F306264E7003F07F05AE
:103890008D70C3F38053CB705AB90C46FFF7DCFF31
:1038A00020703046FFF7D8FF60702846FFF7D4FF3E
:1038B000A070002070BD70B503685B68C3F307405B
:1038C000C870C3F304264E7003F03F058D70C3F338
:1038D00042330B705AB90C46FFF7BEFFE07030461A
:1038E000FFF7BAFF60702846FFF7B6FFA070002010
:1038F00070BD000070B483B03A4B1C683A4BA3FB18
:103900000434E40A4FF47A7303FB04F40194037F54
:10391000012B65D001230377022343770368CA256F
:103920005D62036853255D620668B36813F4806FB7
:1039300008D0019B5D1E0195002B3ED0F36813F06B
:10394000040FF6D1B36823F48063B3600568EB68B5
:10395000DBB263F49063EB600194019B5C1E019405
:10396000002B32D00368DC6814F0040FF5D09C689B
:1039700024F007049C600468A3681A43A2600368EB
:1039800059611A4B1A6842F480021A609A6842F42C
:1039900080029A600268936843F4804393600268EF
:1039A000936843F4806393600368FF225A620123A3
:1039B00043770023037718460FE0FF237362032346
:1039C000437700220277184607E00368FF225A6215
:1039D0000323437700220277184603B070BC704778
:1039E0000220FAE70C000020D34D6210003C014099
:1039F0007047000010B504460368DB6813F4806F5D
:103A000006D1084B4FF480025A610123637710BD41
:103A1000FFF7EEFF2268D368DBB263F49063D360F4
:103A2000EFE700BF003C01400368503343F821201A
:103A300070470368503353F821007047DFF834D0E3
:103A40000D480E490E4A002302E0D458C4500433F6
:103A5000C4188C42F9D30B4A0B4C002301E01360CD
:103A60000432A242FBD3FFF713FD00F011F8FEF77A
:103A700061FA70470000032000000020740000205D
:103A8000589B0008740000208C0A0020FEE700000C
:103A900070B50D4D0D4C641BA4100026A64209D133
:103AA0000B4D0C4C01F0C6FE641BA4100026A64270
:103AB00005D170BD55F8043B98470136EEE755F83F
:103AC000043B98470136F2E7509B0008509B0008E2
:103AD000509B0008549B000802440346934200D1C7
:103AE000704703F8011BF9E70FB40A4B13B51C68C4
:103AF00024B1A36913B9204600F028FB05AB049A52
:103B0000A1680193204601F037F802B0BDE81040EB
:103B100004B070471000002070B50E46054618B17D
:103B200083690BB900F012FBAB69AC6813B9284686
:103B300000F00CFB2C4B9C4220D16C68636EDB07C1
:103B400005D4A389980502D4A06D00F09DFBA3893C
:103B500019071DD52369DBB1013EA36816F8011FC3
:103B6000013BA36039BB002B38DA22460A212846E4
:103B700000F0F0F8013011D00A2511E01B4B9C42F7
:103B800001D1AC68DAE71A4B9C4208BFEC68D5E774
:103B90002146284600F042F90028DDD04FF0FF35DD
:103BA000636EDA0705D4A3899B0502D4A06D00F0EB
:103BB0006CFB284670BD002B04DAA2699A4206DC31
:103BC0000A2904D023685A1C22601970C5E72246CE
:103BD000284600F0BFF80130BFD1DFE723680A258F
:103BE0005A1C22601D70DBE7B8990008D8990008BC
:103BF00098990008024B01461868FFF78DBF00BF77
:103C0000100000200EB400B59CB01DAB02900690D1
:103C10006FF00041094807910491094953F8042BBA
:103C200005910068019302A900F0AAFC029B002202
:103C30001A701CB05DF804EB03B070471000002050
:103C40000802FFFF0EB410B59FB021AC4FF4017114
:103C500054F8042B0192ADF81C1004900890FCF766
:103C6000D1FA0C4B059009900D930B48019A00680E
:103C700003940023119316934FF6FF73ADF81E3093
:103C800004A9234600F0D6FD1FB0BDE8104003B0E4
:103C9000704700BFBF3C00081000002010B50C4664
:103CA000B1F90E1001F07AFB0028ABBF636DA38958
:103CB0001B1823F48053ACBF6365A38110BD0020A3
:103CC00070472DE9F0411F468B89DB0505460C4600
:103CD000164605D5B1F90E100223002200F0D6FADF
:103CE000A389B4F90E1023F48053A38132463B46D6
:103CF0002846BDE8F04100F07FB810B50C46B1F998
:103D00000E1000F0C3FA431CA38915BF606523F4AD
:103D1000805343F48053A38118BFA38110BDB1F930
:103D20000E1000F0E9B80A7870B56AB970BD9A4211
:103D300009D10C46054614F8013F002BF6D015F8C2
:103D4000016F9E42F7D001300378002BEFD1184667
:103D5000ECE70000F8B50E461446054618B1836935
:103D60000BB900F0F3F9214B9C422BD16C68A3698D
:103D7000A360A3891A072FD523696BB32369206831
:103D8000C01A6369F6B28342374604DC21462846EE
:103D900000F048F930BBA368013BA36023685A1CBC
:103DA00022601E7063690130834204D0A389DB075F
:103DB00006D50A2E04D12146284600F033F988B9E9
:103DC0003846F8BD0A4B9C4201D1AC68CFE7094B9D
:103DD0009C4208BFEC68CAE72146284600F01EF85E
:103DE0000028CBD04FF0FF37EAE700BFB8990008B2
:103DF000D89900089899000838B5074D0446084638
:103E0000114600222A601A46FEF74CFA431C02D1E2
:103E10002B6803B1236038BD840A0020324B70B593
:103E20001D6806460C4625B1AB6913B9284600F05B
:103E30008DF92E4B9C420FD16C68A389B4F90C20EC
:103E400019072CD4DD0611D40923336042F0400356
:103E5000A3814FF0FF303EE0254B9C4201D1AC687E
:103E6000EBE7244B9C4208BFEC68E6E7580712D505
:103E7000616B41B104F14403994202D0304600F035
:103E80007DFA00236363A38923F02403A381002325
:103E9000636023692360A38943F00803A381236936
:103EA0004BB9A38903F42073B3F5007F03D02146F7
:103EB000304600F023FAA089B4F90C2010F0010379
:103EC0000AD00023A36063695B42A361236943B9FD
:103ED00010F08000BAD170BD810758BF6369A3603C
:103EE000F4E70020F7E700BF10000020B8990008B1
:103EF000D89900089899000838B5064D0023044663
:103F000008462B6001F060FC431C02D12B6803B112
:103F1000236038BD840A00208A892DE9F0410546D6
:103F200010070C4658D44B68002B05DC0B6C002B9B
:103F300002DC0020BDE8F081E66A002EF9D0002303
:103F400012F480522F682B6032D0606DA3895A071B
:103F500005D56368C01A636B0BB1236CC01A0023CC
:103F60000246E66A216A2846B047431CA38906D167
:103F700029681D292CD82A4ACA40D60728D50022EC
:103F80006260D9042269226004D5421C01D12B68E9
:103F900003B96065616B2F600029CAD004F1440346
:103FA000994202D0284600F0E9F900206063C1E799
:103FB000216A01232846B047411CC7D12B68002B3A
:103FC000C4D01D2B01D0162B01D12F60B1E7A389DE
:103FD00043F04003A381ADE70F69002FA9D09307F9
:103FE0000E6808BF4B690F6018BF0023A6EB0708D7
:103FF0008B60B8F1000F9CDD216AA66A43463A4601
:104000002846B047002806DCA38943F04003A3817B
:104010004FF0FF308EE70744A8EB0008E9E700BF48
:104020000100402038B50B6905460C4613B9002540
:10403000284638BD18B183690BB900F087F8144BD6
:104040009C421BD16C68B4F90C30002BEFD0626E2F
:10405000D00704D4990502D4A06D00F015F92846C4
:104060002146FFF759FF636EDA070546E0D4A389BE
:104070009B05DDD4A06D00F008F9D9E7054B9C4203
:1040800001D1AC68DFE7044B9C4208BFEC68DAE77B
:10409000B8990008D899000898990008002310B52D
:1040A0000446C0E90033C0E904338360818143667C
:1040B000C2818361194608225C30FFF70DFD054B74
:1040C0006362054BA362054BE362054B24622363E5
:1040D00010BD00BF9D3C0008C33C0008FB3C00082D
:1040E0001F3D0008014900F0AFB800BF254000089F
:1040F00070B568224D1E55430E4605F1740100F05F
:1041000089F9044640B10021C0E900160C30A060D6
:1041100005F16802FFF7E0FC204670BD014800F0A1
:10412000B3B800BF790A0020014800F0AEB800BF64
:10413000790A0020014800F0A7B800BF7A0A0020E1
:10414000014800F0A2B800BF7A0A002010B504466A
:10415000FFF7F0FFA3691BB1BDE81040FFF7F0BF08
:10416000C4E912332365134B134A1B68A262A342AE
:1041700004BF0123A361204600F020F860602046C0
:1041800000F01CF8A060204600F018F80022E06063
:1041900004216068FFF782FFA06801220921FFF770
:1041A0007DFFE06802221221FFF778FF0123A3615F
:1041B000D2E700BF94990008E5400008F8B507462B
:1041C000FFF7ACFF1E4B1E68B36913B93046FFF70B
:1041D000BDFF4836D6E90134013B03D533680BB344
:1041E0003668F7E7B4F90C50D5B9164BE36004F123
:1041F0005800656600F047F8FFF796FFC4E90155DF
:10420000C4E904552560A5610822294604F15C0033
:10421000FFF762FCC4E90D55C4E912552046F8BD0C
:104220006834D9E704213846FFF762FF044630605E
:104230000028D5D1FFF778FF0C233B60EEE700BFE5
:10424000949900080100FFFF2DE9F84306468846CF
:1042500000F148040027D4E90195B9F1010905D519
:104260002468002CF7D13846BDE8F883AB89012BD0
:1042700007D9B5F90E30013303D029463046C0477F
:1042800007436835E9E770477047704738B5074D11
:1042900004460846114600222A601A4601F0ACFA8C
:1042A000431C02D12B6803B1236038BD840A00206F
:1042B00070B50E46B1F90E10002996B014461D4691
:1042C00008DAB6F90C3000222A601A0610D44FF42E
:1042D00080630EE06A4601F0F3F90028F1DB019AF1
:1042E00002F47042A2F500535A425A412A60EEE7A6
:1042F00040230020236016B070BD00008B8973B589
:104300009D0706460C4607D504F147032360236149
:104310000123636102B070BD01AB6A46FFF7C8FFBD
:1043200000990546304600F075F848B9B4F90C30EC
:104330009A05EFD423F0030343F00203A381E3E7DC
:104340000D4BB362A389206043F08003A381009BDF
:104350006361019B20615BB1B4F90E10304601F03E
:10436000C1F928B1A38923F0030343F00103A3811A
:10437000A0890543A581CDE7E540000837B50029B0
:1043800044D051F8043C0190002BA1F10404B8BFC3
:10439000E41801F0DFF91E4A0198136833B963602D
:1043A000146003B0BDE8304001F0DAB9A34208D987
:1043B000256861198B4201BF19685B684919216042
:1043C000EDE71A465B680BB1A342FAD9116855189C
:1043D000A5420BD1246821445418A3421160E0D1B6
:1043E0001C685B68536021441160DAE702D90C2332
:1043F0000360D6E7256861198B4204BF19685B68C2
:10440000636004BF491921605460CAE703B030BD3E
:104410007C0A0020F8B5CD1C25F0030508350C2DCD
:1044200038BF0C25002D064601DBA94203D90C2319
:1044300033600020F8BD01F08DF921490A68144667
:104440009CB9204F3B6823B92146304600F0B8FFA5
:1044500038602946304600F0B3FF431C23D10C23BB
:104460003360304601F07CF9E3E723685B1B17D427
:104470000B2B03D923601C44256004E06368A2422F
:104480000CBF0B605360304601F06AF904F10B0079
:10449000231D20F00700C21ACCD01B1AA350C9E775
:1044A00022466468CCE7C41C24F00304A042E3D095
:1044B000211A304600F084FF0130DDD1CFE700BF84
:1044C0007C0A0020800A00202DE9F0478E689E4279
:1044D00082460C4690461F4638D88A8912F4906F5F
:1044E00032D025680969A5EB0109656905EB450529
:1044F00005EBD57501334B446D109D4238BF1D4609
:10450000530531D52946FFF785FF064650B90C23E0
:10451000CAF80030A38943F04003A3814FF0FF3075
:10452000BDE8F08721694A4601F0ECF8A38923F43D
:10453000906343F08003A381266165614E44A5EB3F
:1045400009052660A5603E46BE4200D93E46206869
:104550003246414601F0E4F8A3689B1BA360236840
:10456000334423600020DBE72A4601F0FFF80646CB
:104570000028E1D121695046FFF700FFC7E700009E
:104580002DE9F04F98468B891B069DB007460D46D6
:1045900014460ED50B6963B94021FFF73BFF286035
:1045A000286120B90C233B604FF0FF30D1E040235D
:1045B0006B610023099320238DF82930CDF80C80FE
:1045C0003023DFF8A8818DF82A304FF00109234607
:1045D0009A4613F8012B0AB1252AF9D1BAEB040B3C
:1045E0000BD05B46224629463846FFF76DFF013067
:1045F00000F0AA80099A5A4409929AF80030002BD8
:1046000000F0A28000234FF0FF32CDE905230AF12C
:10461000010A049307938DF853301A9354460522E8
:1046200014F8011B5148FBF7FBFD049AD8B9D006DA
:1046300044BF20238DF85330110744BF2B238DF83E
:1046400053309AF800302A2B15D0079A5446002090
:104650004FF00A0C214611F8013B303B092B4ED993
:10466000B0B1079214E0A0EB080309FA03F3134377
:104670000493A246D2E7039B191D1B680391002BEC
:10468000BBBF5B4242F0020207930793B8BF04929C
:1046900023782E2B0CD163782A2B35D1039B1A1D3E
:1046A0001B680392002BB8BF4FF0FF330234059311
:1046B000DFF8C8A0217803225046FBF7B1FD40B1D6
:1046C0004023A0EB0A0003FA00F0049B03430134EB
:1046D000049314F8011B26488DF828100622FBF7D6
:1046E0009FFD002838D0234B1BBB039B073323F0CF
:1046F000070308330393099B3344099367E70CFBD3
:1047000002320C460120A5E7002301340593194627
:104710004FF00A0C204610F8012B303A092A03D931
:10472000002BC5D00591C3E70CFB012104460123F2
:10473000F0E703AB00932A460F4B04A93846AFF3CA
:104740000080421C0646D6D1AB895B063FF52CAFF4
:1047500009981DB0BDE8F08F03AB00932A46064BC5
:1047600004A9384600F0A6FBEBE700BFF899000863
:10477000029A000800000000C9440008FE990008E1
:1047800038B54B1C144603D14FF0FF35284638BDD1
:10479000938923F020039381636B5268CDB28BB170
:1047A000A36B934208DD23685A1E226003F8015C64
:1047B000636801336360E9E7214600F041FF0028A8
:1047C000F1D0E1E72169236851B1994208D213F889
:1047D000011CA94204D1013B013223606260D5E78C
:1047E000C4E90F3204F1440363630323A363234644
:1047F00003F8465F23600123DCE710B50C46496BE4
:1048000069B104F14403994201D0FFF7B7FD236C6D
:1048100063600020606313B1E36B236010BD236904
:10482000236000236360A38943F02003A3814FF03A
:10483000FF30F3E72DE9F0470C46ADF5227D00216E
:10484000CDE94411A649A0910DF10408A549A64F50
:10485000DFF89892CDF818810646A191009313785D
:10486000002B00F05A81D95D11F0080102F1010519
:1048700019D06368002B0FDD23681A78BA5C120721
:1048800001D42A46EBE7459A01324592626801332A
:10489000013A62602360ECE7A19B214630469847CD
:1048A0000028E9D0EDE7252B12D09A466368002B4B
:1048B00040F3918022681378534540F02E8163685D
:1048C000013B6360459B0132013322604593D8E789
:1048D0004191439153782A2B02BF1023951C419399
:1048E0000A22AA461AF8011BA1F13003092B1DD98F
:1048F0007E480322FBF794FC40B10123A0EB0900A2
:1049000003FA00F0419B18434190554615F8013BCE
:10491000782B06D8572B10D8252BC6D056D8002B6D
:1049200064D0032347930A23429371E0439B02FB25
:104930000311303943915546D3E7A3F15802202A99
:10494000EFD801A151F822F0FB49000823490008E3
:1049500023490008594A0008234900082349000850
:104960002349000823490008234900082349000877
:10497000234900086F4A0008454A0008D349000847
:10498000D3490008D349000823490008494A0008D0
:104990002349000823490008234900082349000847
:1049A0007F4A0008514A0008F349000823490008DB
:1049B000234900087B4A000823490008454A0008AB
:1049C0002349000823490008FB490008453B022B06
:1049D000A7D805231BE0A19B214630469847002815
:1049E0003FF468AF4498002840F08D804FF0FF30CE
:1049F0008FE0419A42F020024192419A42F40072C3
:104A0000419210226F2B429234BF03230423479319
:104A10006368002B41DD419B590604D423681A7852
:104A2000BA5C120740D4479B022B4FDC6B462246F0
:104A300041A9304600F064FB01286ED002287FF4C3
:104A400020AFCFE70A22DDE7002342930323DEE70E
:104A5000082342930423DAE72946404600F0C0FCCD
:104A6000419B43F04003419305460123CFE7419B1F
:104A700043F0400341930023C9E70223C7E741986D
:104A8000C3063FF5FEAE009B459A191D00911B68B9
:104A9000C0074CBF1A801A60F3E6A19B214630463E
:104AA00098470028B7D09DE7459A01324592626841
:104AB000013A002A626002DD01332360AEE7A19B68
:104AC0002146304698470028A8D08BE7042B0FDCFE
:104AD0006B46224641A9304600F06CFBACE700BFB4
:104AE00081470008FB470008479A0008FE99000824
:104AF0000B4B002B3FF4C5AE6B46224641A9304616
:104B0000AFF3008098E7A38913F0400F18BF4FF070
:104B1000FF300DF5227DBDE8F0874498F9E700BF2E
:104B2000000000009368013B002B10B4936008DA8A
:104B30009469A34201DB0A2903D15DF8044BFFF716
:104B400009B91368581C1060197008465DF8044BC9
:104B50007047F8B506460F461446D518AC4201D149
:104B6000002007E014F8011B3A463046FFF7DAFF51
:104B7000431CF3D1F8BD00002DE9F04F0D469DB068
:104B800014469846064618B183690BB9FFF7DEFA5A
:104B9000894B9D421BD175686B6ED90705D4AB89D3
:104BA0009A0502D4A86DFFF76FFBAB891B0701D5EF
:104BB0002B69EBB929463046FFF730F9C0B16B6E6F
:104BC000DC070ED54FF0FF301DB0BDE8F08F7B4BFA
:104BD0009D4201D1B568DFE7794B9D4208BFF5687A
:104BE000DAE7AB899805EDD4A86DFFF74EFBE9E74E
:104BF0000023099320238DF82930CDF80C80302331
:104C0000DFF8C0818DF82A304FF0010923469A461B
:104C100013F8012B0AB1252AF9D1BAEB040B0BD0FA
:104C20005B46224629463046FFF793FF013000F0ED
:104C3000AA80099A5A4409929AF80030002B00F091
:104C4000A28000234FF0FF32CDE905230AF1010ACB
:104C5000049307938DF853301A935446052214F8A1
:104C6000011B5848FBF7DCFA049AD8B9D10644BFB7
:104C700020238DF85330130744BF2B238DF8533076
:104C80009AF800302A2B15D0079A544600204FF08E
:104C90000A0C214611F8013B303B092B4ED9B0B12B
:104CA000079214E0A0EB080309FA03F313430493FB
:104CB000A246D2E7039B191D1B680391002BBBBFC3
:104CC0005B4242F0020207930793B8BF0492237835
:104CD0002E2B0CD163782A2B35D1039B1A1D1B6810
:104CE0000392002BB8BF4FF0FF3302340593DFF877
:104CF000E4A0217803225046FBF792FA40B140230A
:104D0000A0EB0A0003FA00F0049B03430134049370
:104D100014F8011B2C488DF828100622FBF780FAA6
:104D200000283FD0294B1BBB039B073323F007030D
:104D300008330393099B3B44099367E70CFB02325A
:104D40000C460120A5E700230134059319464FF0D6
:104D50000A0C204610F8012B303A092A03D9002BFF
:104D6000C5D00591C3E70CFB012104460123F0E700
:104D700003AB00932A46164B04A93046AFF30080DC
:104D80000746781CD6D16B6ED90705D4AB899A0536
:104D900002D4A86DFFF779FAAB895B063FF512AF35
:104DA000099811E703AB00932A46094B04A9304642
:104DB00000F080F8E4E700BFB8990008D89900082F
:104DC00098990008F8990008029A0008000000006D
:104DD000534B0008FE9900082DE9F0471646994606
:104DE0008A680B69DDF820809342B8BF13463360B0
:104DF00091F8432007460C460AB10133336023681B
:104E0000990642BF336802333360256815F0060502
:104E100006D104F1190AE36832689B1AAB4226DC1A
:104E200094F84320131E226818BF012392062BD446
:104E300004F1430249463846C04701301ED023687A
:104E4000E568326803F00603042B08BFAD1AA368B7
:104E500022690CBF25EAE57500259342C4BF9B1A61
:104E6000ED1800261A34B5421AD1002008E00123BB
:104E7000524649463846C047013003D14FF0FF3013
:104E8000BDE8F0870135C6E7E1185A1C302081F8EB
:104E90004300224494F8451082F843100233C7E7D8
:104EA0000123224649463846C0470130E6D0013644
:104EB000D9E700002DE9FF470F7E0C9D782F914622
:104EC00080460C469A4601F1430207D8622F0AD861
:104ED000002F00F0D880582F00F0A38004F1420585
:104EE00084F842703AE0A7F16303152BF6D801A1CC
:104EF00051F823F04D4F0008614F0008DD4E0008C7
:104F0000DD4E0008DD4E0008DD4E0008614F000850
:104F1000DD4E0008DD4E0008DD4E0008DD4E0008C5
:104F20006D500008914F00084F500008DD4E0008FA
:104F3000DD4E00088F500008DD4E0008914F00083C
:104F4000DD4E0008DD4E0008575000082B681A1D82
:104F50001B682A6004F1420584F842300123A3E073
:104F600020682968060601F104030AD50E682B6043
:104F7000002E03DA2D23764284F843305E480A235C
:104F800019E00E682B6010F0400F18BF36B2EFE743
:104F90002B682068191D2960010601D51E6802E0F2
:104FA0004606FBD51E8854486F2F0CBF08230A23E2
:104FB000002184F843106568A560002DA2BF216818
:104FC00021F0040121600EB9002D4DD01546B6FB2D
:104FD000F3F103FB1167C75D05F8017D3746BB425E
:104FE0000E46F4D9082B0BD12368DE0708D52369B8
:104FF00061689942DEBF302305F8013C05F1FF35B9
:10500000521B2261CDF800A04B4603AA2146404620
:10501000FFF7E2FE01304CD14FF0FF3004B0BDE8A5
:10502000F087354881F845702968236851F8046B8A
:1050300029601D0614D5DF0744BF43F02003236019
:105040001EB9236823F0200323601023B0E72368F0
:1050500043F0200323607823284884F84530E3E7B1
:10506000590648BFB6B2E6E71546BBE72B68266887
:105070006169181D286035061B6801D5196002E0BA
:105080007006FBD51980002323611546BAE72B680B
:105090001A1D2A601D68626800212846FBF7C0F8C7
:1050A00008B1401B606063682361002384F84330CB
:1050B000A8E723692A4649464046D0470130ABD08D
:1050C00023689B0713D4E068039B9842B8BF184637
:1050D000A4E70123324649464046D04701309BD0E1
:1050E0000135E36803995B1AAB42F2DCEBE700257C
:1050F00004F11906F5E700BF099A00081A9A00089A
:105100002DE9F84315468A6880460C4632B98A690B
:10511000002A0CBF01224FF0FF328A602268DFF8BC
:105120009090D1065FBF1A68111D1960166800279C
:10513000A06988B1012807D12A6811786269525C98
:1051400052B9002F31D022E0022820D12B681B78E1
:1051500013F809301B071AD42368DA065EBF2B68E0
:105160001B7806F8013B2A686B6801322A60A26846
:10517000013B013A6B600137A26042B1002BD7DCE2
:10518000D4F880312946404698470028D0D023687B
:1051900013F0100305D1E2680132E260A26902B1A6
:1051A000337023693B4423610020BDE8F88300BFCE
:1051B000479A00082DE9F04F9846744B0C468246FA
:1051C000164693E8070087B003AB83E80700704BEF
:1051D000A169704A032918BF1A46A36801925A1E92
:1051E000B2F5AE7F88BF6FF4AE75274682BF03EB82
:1051F000050940F25D13A36057F81C3B43F450636C
:1052000098BF4FF0000923603D464FF0000B316816
:1052100003AB097853F82B000222FBF701F828B3FF
:10522000BBF1010F59D162682AB92268082342F400
:10523000007263602260226822F4A0622260A26889
:10524000511EA16092B13268511C3160127805F88C
:10525000012B7268013A002A726007DCD4F88021C1
:10526000314650469047002840F085800BF1010BF5
:10527000BBF1030FCBD163680BB90A23636063688A
:1052800045496069C91A00F0ABF84FF0000BA368FC
:105290002268002B3DD03168606991F800C010F899
:1052A0000C00002835D0BCF1300F24D1100522D5D8
:1052B0000BF1010BB9F1000F03D0013309F1FF39F4
:1052C000A3607368013B002B73601BDD33680133FF
:1052D0003360A368013BA360D9E7BBF1020FAED1F5
:1052E000226802F4C061B1F5007FBFD11023636072
:1052F00042F48072A2E722F4106222600B7805F873
:10530000013BDEE7D4F8803131465046984700280B
:10531000DFD02368D9050DD5BD4209D915F8011C88
:10532000D4F87C3132465046984705F1FF394D4656
:10533000BD4228D0226812F0100213D12A7063688F
:10534000019E39465046B047D8F8003021681A1DF2
:10535000C8F8002011F0200F1B680FD01860E36818
:105360000133E360ED1BAB4425695D4425610020FA
:1053700007B0BDE8F08F4FF0000BCAE7CA074CBF7B
:1053800018801860EBE70120F2E700BF4C580008D6
:105390003D56000855550008449A000838B5074D99
:1053A00004460846114600222A601A4600F02CFAEC
:1053B000431C02D12B6803B1236038BD840A00204E
:1053C00038B5064D0023044608462B6000F024FA49
:1053D000431C02D12B6803B1236038BD840A00202E
:1053E00070B50B7804465E2B0BBF4B78481C881CAD
:1053F000002208BF0122611E04F1FF0501F8012F00
:10540000A942FBD10BB9013870BD82F00102E25410
:105410000546284610F8011B2D2906D05D29F3D03A
:1054200009B92846F0E70B46F1E76E785D2EFAD011
:10543000B342F8DC0235194601318E426254FBDC7E
:10544000F11A0139581CB342A8BF00214318E0E704
:10545000012B2DE9F04701D0242B06D900F02AF9C1
:10546000162303600020BDE8F087DFF8E4C00D4696
:105470002E4615F8014B14F80C7017F00807F7D1F9
:105480002D2C32D12C780127B51C002B5BD0102B92
:1054900009D1302C07D12C7804F0DF04582C4DD1E1
:1054A0006C781023023507F1004808F1FF384FF0FF
:1054B000000CB8FBF3F9664603FB198AA4F1300E21
:1054C000BEF1090F16D87446A34224DDBCF1000FCB
:1054D0001EDBB1451CD301D1A24519DB06FB0346F7
:1054E0004FF0010C15F8014BE8E72B2C04BF2C788A
:1054F000B51CCAE7A4F1410EBEF1190F01D8373C23
:10550000E2E7A4F1610EBEF1190F04D8573CDBE7C6
:105510004FF0FF3CE6E7BCF1000F05DA2223036001
:10552000464642B930469EE707B17642002AF9D096
:10553000BCF1000F00D0691E1160F3E73024002B8E
:10554000B1D10823AFE7302CA5D00A23ABE700BFC9
:10555000479A0008FFF77CBF2DE9F043364F864697
:105560000D46284615F8014BE65D16F00806F8D101
:105570002D2C2FD12C780126851C002B57D0102BD9
:1055800009D1302C07D1287800F0DF00582849D104
:105590006C78102302354FF0FF380027B8FBF3F882
:1055A00003FB08F96FEA09093846A4F1300CBCF195
:1055B000090F14D86446A34222DD002F1DDB80456D
:1055C0001BD301D1A14518DB00FB0340012715F8CF
:1055D000014BEAE72B2C04BF2C78851CCDE7A4F106
:1055E000410CBCF1190F01D8373CE4E7A4F1610C80
:1055F000BCF1190F04D8573CDDE74FF0FF37E6E761
:10560000002F07DA2223CEF800304FF0FF3032B9F6
:10561000BDE8F08306B14042002AF9D007B1691E07
:105620001160F5E73024002BB5D10823B3E7302C07
:10563000A9D00A23AFE700BF479A0008FFF78CBF45
:105640002DE9F0410C46496B04F1440399421DD108
:105650004FF48061FEF7DEFE18B94FF0FF30BDE871
:10566000F0814FF48063A36394F84630606380F860
:10567000FF3394F8453080F8FE3394F8443080F8D6
:10568000FD3300F2FD3020600020E8E7A66B7700D4
:105690003A4600F06BF805460028DED000EB06081D
:1056A00001463246404600F02DF8C4E90D57C4F8D3
:1056B0000080E9E7014B1868704700BF1000002028
:1056C00038B5074D00230446084611462B6000F00C
:1056D00083F8431C02D12B6803B1236038BD00BF9F
:1056E000840A002038B5064D0023044608462B6086
:1056F00000F07AF8431C02D12B6803B1236038BD57
:10570000840A00200A44914200F1FF3300D170471F
:1057100010B511F8014B03F8014F9142F9D110BDBA
:10572000884210B501EB020402D98442234607D80F
:10573000431EA14208D011F8012B03F8012FF8E70E
:10574000024401468A4200D110BD13F8014D02F80F
:10575000014DF7E70148FEF797BD00BF780A00202A
:105760000148FEF792BD00BF780A0020F8B5074651
:1057700014460E4621B9BDE8F8401146FEF74ABE70
:1057800022B9FEF7FBFD25462846F8BD00F014F8C7
:10579000A0420FD221463846FEF73CFE05460028BF
:1057A000F2D031462246FFF7ADFF31463846FEF7CC
:1057B000E5FDE9E73546E7E751F8043C181F002B03
:1057C000BCBF0B58C0187047024B58221A604FF0EC
:1057D000FF307047840A0020024B58221A604FF0B5
:1057E000FF307047840A0020024B58221A600020C4
:1057F000704700BF840A0020024B58221A604FF005
:10580000FF307047840A0020024B58221A604FF084
:10581000FF307047840A0020044A05491368002BB2
:1058200008BF0B461844106018467047880A0020CD
:10583000900A0020F8B500BFF8BC08BC9E4670472F
:0C584000F8B500BFF8BC08BC9E467047DD
:10584C002B9A00082E9A0008319A000800000000DC
:10585C000000000000000000000004040404040028
:10586C000004000014140A000000000000000000F6
:10587C0000000A0A1F0A0A1F0A0A000000040E157B
:10588C0005060C14150E0400000012150D152E2C17
:10589C002A1200000000040A0A3615152916000009
:1058AC0002020100000000000000000010080804C3
:1058BC00040404040808100002040408080808087A
:1058CC000404020000000004150E0E150400000074
:1058DC0000000008083E080800000000000000005E
:1058EC00000000000202010000000000003F000068
:1058FC00000000000000000000000000000200009A
:10590C0000201010080804040202010000000E110F
:10591C0011111111110E00000000040604040404FE
:10592C00040E000000000E1111080402011F0000FB
:10593C0000000E11100C1010110E00000000080CCD
:10594C000C0A091F081C000000001F01010F111098
:10595C00110E000000000C12010D1311110E0000AD
:10596C0000001E10080804040404000000000E11BE
:10597C00110E1111110E000000000E11111916104C
:10598C0009060000000000000400000000040000F4
:10599C0000000000000400000004040000001008D7
:1059AC000402020408100000000000003F003F0049
:1059BC00000000000000020408101008040200009F
:1059CC0000000E11110804040004000000001C2249
:1059DC00292D2D1D221C0000000004040C0A0A1E97
:1059EC001233000000000F12120E1212120F0000E0
:1059FC0000001E1101010101110E000000000F1228
:105A0C0012121212120F000000001F120A0E0A02CC
:105A1C00121F000000001F120A0E0A0202070000EB
:105A2C0000001C1201013911120C0000000033128D
:105A3C00121E12121233000000001F04040404048E
:105A4C00041F000000003E080808080808080907A1
:105A5C00000037120A060A12123700000000070273
:105A6C0002020202223F000000003B1B1B1B15150B
:105A7C001535000000003B1216161A1A12170000FA
:105A8C0000000E1111111111110E000000000F1267
:105A9C00120E02020207000000000E111111111764
:105AAC00190E180000000F12120E0A121237000005
:105ABC0000001E1101060810110F000000001F1538
:105ACC0004040404040E000000003312121212121B
