:020000040800F2
:1000000000000320452000081D1100081F110008F2
:10001000211100082311000825110008000000002C
:100020000000000000000000000000002711000890
:1000300029110008000000002B1100082D110008F4
:1000400095200008952000089520000895200008BC
:1000500095200008952000089520000895200008AC
:10006000952000089520000895200008952000089C
:10007000952000089520000895200008952000088C
:10008000952000089520000895200008952000087C
:10009000952000089520000895200008952000086C
:1000A000952000089520000895200008952000085C
:1000B000952000089520000895200008952000084C
:1000C000952000089520000895200008952000083C
:1000D00095200008351100089911000895200008A6
:1000E000952000089520000895200008952000081C
:1000F000952000089520000895200008952000080C
:1001000095200008952000089520000895200008FB
:1001100095200008952000089520000895200008EB
:1001200095200008952000089520000895200008DB
:1001300095200008952000089520000895200008CB
:1001400095200008952000089520000895200008BB
:1001500095200008952000089520000895200008AB
:10016000952000089520000895200008952000089B
:100170009520000895200008952000080000000048
:10018000952000089520000895200008952000087B
:10019000952000089520000895200008952000086B
:0C01A0009520000895200008952000081C
:1001B00010B5054C237833B9044B13B10448AFF3A1
:1001C00000800123237010BD70000020000000009B
:1001D0003C3E000808B5034B1BB103490348AFF38D
:1001E000008008BD00000000740000203C3E0008B4
:1001F000034613F8012B002AFBD1181A0138704767
:1002000001F0FF01102A2BDB10F0070F08D010F8C7
:10021000013B013A8B422DD010F0070F42B3F6D1CB
:10022000F0B441EA012141EA014122F007047FF0E4
:1002300000070023F0E80256083C85EA010586EA3B
:10024000010685FA47F5A3FA87F586FA47F6A5FA77
:1002500087F68EB9EED1F0BC01F0FF0102F0070283
:1002600032B110F8013B013A83EA010313B1F8D12E
:100270000020704701387047002D06BF354603380F
:10028000073815F0010F07D1013015F4807F02BF48
:10029000013015F4C03F0130F0BC0138704700BF99
:1002A00053B94AB9002908BF00281CBF4FF0FF31DD
:1002B0004FF0FF3000F074B9ADF1080C6DE904CED9
:1002C00000F006F8DDF804E0DDE9022304B0704731
:1002D0002DE9F047089D04468E46002B4DD18A42F9
:1002E000944669D9B2FA82F252B101FA02F3C2F12C
:1002F000200120FA01F10CFA02FC41EA030E9440BD
:100300004FEA1C48210CBEFBF8F61FFA8CF708FBDD
:1003100016E341EA034306FB07F199420AD91CEBB5
:10032000030306F1FF3080F01F81994240F21C81E7
:10033000023E63445B1AA4B2B3FBF8F008FB10332F
:1003400044EA034400FB07F7A7420AD91CEB040464
:1003500000F1FF3380F00A81A74240F20781644434
:10036000023840EA0640E41B00261DB1D4400023B9
:10037000C5E900433146BDE8F0878B4209D9002D1D
:1003800000F0EF800026C5E9000130463146BDE8A7
:10039000F087B3FA83F6002E4AD18B4202D3824211
:1003A00000F2F980841A61EB030301209E46002DC0
:1003B000E0D0C5E9004EDDE702B9FFDEB2FA82F215
:1003C000002A40F09280A1EB0C014FEA1C471FFA73
:1003D0008CFE0126200CB1FBF7F307FB131140EA5A
:1003E00001410EFB03F0884208D91CEB010103F127
:1003F000FF3802D2884200F2CB804346091AA4B2E9
:10040000B1FBF7F007FB101144EA01440EFB00FEBC
:10041000A64508D91CEB040400F1FF3102D2A64521
:1004200000F2BB800846A4EB0E0440EA03409CE7C0
:10043000C6F12007B34022FA07FC4CEA030C20FA6D
:1004400007F401FA06F31C43F9404FEA1C4900FA8D
:1004500006F3B1FBF9F8200C1FFA8CFE09FB18110A
:1004600040EA014108FB0EF0884202FA06F20BD97D
:100470001CEB010108F1FF3A80F08880884240F2CD
:100480008580A8F102086144091AA4B2B1FBF9F011
:1004900009FB101144EA014100FB0EFE8E4508D90C
:1004A0001CEB010100F1FF346CD28E456AD9023891
:1004B000614440EA0840A0FB0294A1EB0E01A14276
:1004C000C846A64656D353D05DB1B3EB080261EBE4
:1004D0000E0101FA07F722FA06F3F1401F43C5E9BE
:1004E000007100263146BDE8F087C2F12003D840F4
:1004F0000CFA02FC21FA03F3914001434FEA1C4736
:100500001FFA8CFEB3FBF7F007FB10360B0C43EA27
:10051000064300FB0EF69E4204FA02F408D91CEBD7
:10052000030300F1FF382FD29E422DD902386344D5
:100530009B1B89B2B3FBF7F607FB163341EA034175
:1005400006FB0EF38B4208D91CEB010106F1FF38C4
:1005500016D28B4214D9023E6144C91A46EA0046BB
:1005600038E72E46284605E70646E3E61846F8E64D
:100570004B45A9D2B9EB020864EB0C0E0138A3E796
:100580004646EAE7204694E74046D1E7D0467BE777
:10059000023B614432E7304609E76444023842E7EF
:1005A000704700BF30B4044608460A2A03D000232F
:1005B0000B7030BC704734B1002C09DB0A460021B7
:1005C00042F2107318E030230B7000234B70F0E7F9
:1005D0000A462D2302F8013B6442F0E7303502F869
:1005E000015B94FBF3F103FB11440121084D85FBF2
:1005F00003C5DB17C3EBA503002B06DD94FBF3F566
:10060000002DEBD10029F1D0E8E700231370D0E7EB
:10061000676666660EB430B586B0044609AB53F81B
:10062000045B01930CE06B786E2B13D0722B16D108
:10063000244B1B7863600235236813F0800FFBD0D6
:100640002B78002B39D05C2BEDD0252B09D06360A3
:100650000135F1E71B4B5B7863600235ECE702354F
:10066000EAE76B78642B11D0732B24D1019B1A1D00
:1006700001921A6805E06360236813F0800FFBD0D5
:1006800001321378002BF6D10235D5E7019B1A1DF4
:1006900001920A2202A91868FFF784FF02AA05E066
:1006A0006360236813F0800FFBD001321378002BB6
:1006B000F6D10235C0E70235BEE706B0BDE83040EE
:1006C00003B070470000002070B588B0002400948B
:1006D0001D4B1A6B42F001021A631A6B02F0010201
:1006E0000092009A01941A6B42F004021A631A6B8A
:1006F00002F004020192019A02941A6B42F0800205
:100700001A631B6B03F080030293029B012603967E
:100710000494022305930325069503A90B4801F0D1
:1007200007FA4FF40053039304940596069503A922
:10073000074801F0FDF90C2303930DEB0301054875
:1007400001F0F6F908B070BD003802400000024028
:1007500000080240001C024008B5012819D0344BA3
:100760001B783BB30821334801F0E0FA20B10421A3
:10077000304801F0DBFA80B90A2001F0D3FB2C4BA2
:1007800000221A7008212B4801F0D0FAD0B90120BC
:1007900017E0274B01221A70E1E74FF40051264879
:1007A00001F0C4FA0028E7D00121244801F0BEFA84
:1007B0000128E1D008211F4801F0B8FA012814D01F
:1007C000002008BD04211B4801F0B0FA38B34FF4F3
:1007D0000051194801F0AAFA18B30121174801F095
:1007E000A5FA01281FD00020EBE70421114801F0F1
:1007F0009DFA012801D00020E3E74FF400510E4894
:1008000001F094FA012801D00020DAE701210B4819
:1008100001F08CFA48B9064B01221A70D1E7022088
:10082000CFE70320CDE70420CBE70020C9E700BFD6
:1008300002000020001C02400008024000000240AC
:1008400070B590B01E4C1F49204601F070FD1E4D42
:1008500001AA2946073001F0F9FC01A91B4801F063
:1008600047FC1B49204601F062FD0DF10E022946AE
:10087000073001F0EBFC174E0DF10E01304601F090
:1008800037FC1549204601F052FD06AA29460E30D4
:1008900001F0DCFC06A9304601F02AFC0F49204695
:1008A00001F045FD0DF122020D490E3001F0CEFCA4
:1008B0000DF122010B4801F01BFC10B070BD00BF10
:1008C00090000020603E0008683E0008703E00086E
:1008D0007C3E0008843E0008903E00089C3E0008D4
:1008E000A83E0008B03E000808B5204801F086FC8C
:1008F0001F4801F083FC012220211E4801F01DFA4F
:1009000000F034F90028FBD01B4801F077FC0020F0
:1009100000F062F90028FAD0184801F06FFC18497D
:10092000184800F083F90028F9D0174801F066FC58
:10093000002000F091F90028FAD0144801F05EFC84
:100940000523134A1349002000F09EF90028F7D030
:10095000114801F053FC00F007FA0028FBD00F48C3
:1009600001F04CFC0E4801F049FC08BDBC3E0008FB
:10097000DC3E000800000240F43E00081C3F000876
:10098000383F0008443F0008503F00086C3F000813
:100990008C3F0008903F0008A43F0008C83F0008B3
:1009A000E43F000870B5294BB3F8003413F4004F4E
:1009B00025D0274C54E8003F23F0200344E80032C0
:1009C000002AF6D1214DB5F80034C3F30E030026FA
:1009D000EE54FFF735FFB5F8003466F30E03A5F8C3
:1009E0000034B5F8003466F3CF33A5F8003454E88A
:1009F000003F43F0200344E80032002AF7D1154BB2
:100A00001B7803B970BD00F0C9F900F081F9002826
:100A1000FBD0042804D000F0A7F90028FBD0F1E7B0
:100A20000D4801F0EBFB0D490D4800F0FFF80028E0
:100A3000F9D005230B4A0C49002000F025F90028C5
:100A4000F7D00A4801F0DAFBE5E700BF900000208C
:100A50000C4400408C000020FC3F0008383F000898
:100A6000443F00088C3F0008903F00082C400008DD
:100A700010B5064C01221021204601F05EF900223B
:100A80002021204601F059F910BD00BF00000240AE
:100A900010B5084C00221021204601F04EF94FF409
:100AA000FA7001F03FFA01221021204601F045F9C9
:100AB00010BD00BF00000240F8B50D4616461C46AA
:100AC000264BB3F800246FF30E02A3F8002402466D
:100AD00023492448FFF79EFD15B3204601F022FA72
:100AE0001E4CB4F80034C3F30E030027E75421462C
:100AF0001D4801F0FDFAB4F8003467F30E03A4F8C2
:100B00000034B4F8003467F3CF33A4F80034A5B14F
:100B10009EB12946204601F00AFC28B1012014E0CC
:100B2000002EDAD1012010E03146204601F0FFFB13
:100B300008B1012009E0002007E03DB1294607483F
:100B400001F0F5FB003818BF0120F8BD314603481D
:100B500001F0EDFB003818BF0120F6E790000020FF
:100B60005C400008004400405841000870B5012274
:100B70001021134801F0E1F8124801F03FFB4FF457
:100B8000FA6001F0CFF90024092C16D821460E484E
:100B900001F0AEFA4FF4FA7300220C490C48FFF74B
:100BA0008BFF054620B9FFF773FF0134E4B2EBE792
:100BB0002146084801F09CFA00E00025284670BD57
:100BC000000002406440000874400008984000089B
:100BD0009C400008A040000808B501280CD002285D
:100BE00012D008B1002008BD40F6C4130A4A0B49D0
:100BF0000B48FFF761FFF6E740F6C413064A0749C2
:100C00000848FFF759FFEEE740F6C413024A0349CC
:100C10000548FFF751FFE6E7CC4000089840000880
:100C2000D8400008E4400008F040000800B59FB03C
:100C300002460B460649684601F0E8FA41F288335D
:100C4000002204496846FFF737FF1FB05DF804FB38
:100C5000FC4000089840000800B587B0021E18BF8D
:100C60000122074901A801F0D1FA4FF4FA730022DA
:100C7000044901A8FFF720FF07B05DF804FB00BF9F
:100C80001041000898400008F0B5BBB004460E467D
:100C900017461D4600212191602222A801F020FA6A
:100CA00094B1012C18D0042D1ED821AB2A4611492D
:100CB00003A801F0ABFA4FF47A630F4A0F4903A877
:100CC000FFF7FAFE3BB0F0BD009733460C4A0D49E2
:100CD00021A801F09BFAE6E7009733460A4A094942
:100CE00021A801F093FADEE721AA084903A801F040
:100CF0008DFAE0E7384100085C41000898400008A0
:100D00002041000824410008344100084C410008FB
:100D100008B54FF4FA7300220D490E48FFF7CCFED8
:100D200080B10D490D4801F002FB68B90C490B4830
:100D300001F0FDFA50B90B49084801F0F8FA10B17A
:100D4000042000E0002008BD0220FCE70320FAE7B1
:100D5000984000086C4100087C4100089000002089
:100D6000884100089441000808B54FF4FA73002246
:100D700006490748FFF7A0FE00B908BD4FF4FA7313
:100D8000044A02490448FFF797FEF6E79840000836
:100D9000A0410008B0410008B441000808B54FF474
:100DA0007A7001F0BFF804490448FFF733FC4FF4B0
:100DB000FA7001F0B7F808BDC041000800440040D7
:100DC00072B6FEE700B595B03022002108A801F008
:100DD00087F90023039304930593069307930193E4
:100DE000234A116C41F080511164126C02F0805260
:100DF0000192019A02931F4B1A6842F440421A6012
:100E00001B6803F440430293029B012308934FF4B1
:100E10008033099302230E934FF480020F920F2226
:100E20001092D822119212930423139308A800F071
:100E300081FBB0B900F088FFA8B90F230393022308
:100E40000493002305934FF4A05306934FF480536B
:100E50000793052103A800F0BBFD30B915B05DF87C
:100E600004FBFFF7ADFFFFF7ABFFFFF7A9FF00BFE4
:100E7000003802400070004008B501F027F8FFF785
:100E8000A1FF00F021F800F053F800F0C3F8FFF7DD
:100E90001BFCFFF7EDFDFFF727FD084801F0AEF959
:100EA00005E007490748FFF7B5FBFFF77BFD00208A
:100EB000FFF752FC0128F4D0F7E700BFC441000857
:100EC000E04100080044004030B589B0002403949C
:100ED00004940594069407940194134B1A6B42F002
:100EE00080021A631A6B02F080020192019A029446
:100EF0001A6B42F001021A631B6B03F001030293A9
:100F0000029B0A4D22463021284600F016FF30236E
:100F10000393012304930594069403A9284600F043
:100F200007FE09B030BD00BF00380240000002409B
:100F300010B590B0002409940A940B940C940D946D
:100F40000E940F94039404940594069407940894C3
:100F50002B4B5A6C42F010025A645A6C02F0100289
:100F60000292029A1A6B42F001021A631B6B03F0A1
:100F700001030193019B4FF4C06303930223049385
:100F8000032305930723089303A91E4800F02AFAB8
:100F90001D4BDB681D4B83F8254320225A604FF41C
:100FA000E13309930A940B940C940C230D930E9443
:100FB0000F9404F1804404F5883409A9204600F018
:100FC00047F9236923F490432361636923F02A03DB
:100FD0006361E36843F40053E3600D4B53E8002F73
:100FE00042F0200243E800210029F6D153E8002F07
:100FF00042F0100243E800210029F7D110B010BDE3
:10100000003802400000024000ED00E000E100E096
:101010000C10014030B591B0002409940A940B944F
:101020000C940D940E940F940394049405940694D8
:1010300007940894294B1A6C42F400321A641A6C13
:1010400002F400320292029A1A6B42F001021A6311
:101050001B6B03F001030193019B0C2503950223F5
:10106000049303230593072308930DEB05011C4804
:1010700000F0B8F91B4BDB681B4B83F8264340227A
:101080005A604FF4E13309930A940B940C940D9534
:101090000E940F94154C09A9204600F0D9F8236945
:1010A00023F490432361636923F02A036361E368B7
:1010B00043F40053E3600E4B53E8002F42F020024C
:1010C00043E800210029F6D153E8002F42F0100236
:1010D00043E800210029F7D111B030BD00380240AB
:1010E0000000024000ED00E000E100E000440040AC
:1010F0000C44004010464FF0000C0AE0064B1B6801
:1011000013F0400FFAD011F80C20034B5A600CF189
:10111000010C8445F2DB704700100140FEE7FEE75A
:10112000FEE7FEE7FEE770477047704708B500F03E
:10113000E7FE08BD164B1B6813F0200F19D0144BA7
:101140005A68D2B2134BB3F80034C3F30E0340F223
:10115000FE318B420DD80F49B1F80034C3F30E03B2
:1011600003F1010CB1F800046CF30E00A1F80004C7
:10117000CA54074B1B6813F0100F08D0054BB3F887
:10118000001441F40042A3F80024014B5B6870474F
:10119000001001409404002008B51B4B1B6813F09D
:1011A000200F19D0184B5A68D2B2184BB3F800343C
:1011B000C3F30E0340F2FE318B420DD81349B1F850
:1011C0000034C3F30E0303F1010CB1F800046CF317
:1011D0000E00A1F80004CA540B4B1B6813F0100F4B
:1011E00010D00A48B0F8003443F40043A0F80034AB
:1011F000054B5B68064901F09AF8003818BF0120DA
:10120000044B187008BD00BF00440040900000204F
:10121000584200088C00002082B0002100910B4B46
:101220005A6C42F480425A645A6C02F48042009232
:10123000009A01911A6C42F080521A641B6C03F000
:1012400080530193019B02B0704700BF00380240F9
:10125000C36813F4005F01D00120704730B585B03A
:1012600004460D46C36823F4164323F00C034A6872
:10127000C9680A4329690A43A9690A431343C36039
:10128000AB68026922F44052134303616B694269FF
:1012900022F4407213434361684600F0B9FE484BA4
:1012A0009C4216D0474B9C421AD0474B9C4219D0C7
:1012B000464B9C4218D0464B9C4217D0454B9C4213
:1012C00016D0454B9C4215D0444B9C4214D0012073
:1012D00073E0039800286FD02B687BB901206CE085
:1012E0000298F7E70298F5E70398F3E70298F1E729
:1012F0000298EFE70298EDE70298EBE7AA69B2F5EA
:10130000004F2CD0002102184941121841F1000170
:10131000C90041EA5271D20010184FEA83024FEA25
:10132000937341F10001FEF7BBFF2D49A1FB0023A0
:101330005B091A0192B2642505FB13031B013233CA
:10134000A1FB0313C3F34F1303F0F0010A4492B25D
:1013500003F00F0313449BB2A36000202DE000258F
:10136000021845EB0501121841F10001C90041EADC
:101370005271D200101841F10001DA1845EB050353
:10138000FEF78EFF1649A1FB00235B091A0192B2FA
:10139000642505FB1303DB003233A1FB0313C3F306
:1013A0004F13590001F4F8710A4492B203F0070395
:1013B00013449BB2A360D0E7012005B030BD00BF4D
:1013C000001001400044004000480040001401406B
:1013D000004C00400050004000780040007C00407D
:1013E0001F85EB510B6893FAA3F3B3FA83FC56E025
:1013F0008D68826893FAA3F4B4FA84F464004FF021
:10140000030E0EFA04F422EA040293FAA3F4B4FAE7
:1014100084F4640005FA04F422438260CC684268D4
:1014200022EA030203FB04F42243426045E093FAFC
:10143000A3F2B2FA82F2072A15D84D69026A93FA2A
:10144000A3F4B4FA84F4A4000F2606FA04F422EA02
:10145000040293FAA3F4B4FA84F4A40005FA04F4A1
:101460002243026241E04C69456A1A0A92FAA2FEDE
:10147000BEFA8EFE4FEA8E0E0F2606FA0EFE25EA03
:101480000E0592FAA2F2B2FA82F2920004FA02F285
:101490002A43426229E0002070BD0CF1010C0B6868
:1014A00033FA0CF244D0012202FA0CF21340F4D0C9
:1014B00070B54A68013A012A9AD9C26893FAA3F42E
:1014C000B4FA84F46400032505FA04F422EA040261
:1014D00093FAA3F4B4FA84F464000D6905FA04F4F1
:1014E0002243C2604A68022AA1D04A68046893FA7B
:1014F000A3FEBEFA8EFE4FEA4E0E032505FA0EFE3F
:1015000024EA0E0E93FAA3F3B3FA83F35B0002FA14
:1015100003F34EEA030303600CF1010C0B6833FA8A
:101520000CF2B8D0012202FA0CF21340F4D0C0E75A
:1015300000207047002800F0E08170B582B00446BA
:10154000036813F0010F3BD09F4B9B6803F00C0323
:10155000042B2CD09C4B9B6803F00C03082B21D050
:101560006368B3F5803F4FD0B3F5A02F52D0964BB0
:101570001A6822F480321A601A6822F480221A60F3
:101580006368002B50D000F0C7FC05468E4B1B68EB
:1015900013F4003F14D100F0BFFC401B6428F5D9C0
:1015A0000320B1E1884B5B6813F4800FD8D0864BE1
:1015B0001B6813F4003F03D06368002B00F09F8189
:1015C000236813F0020F54D07F4B9B6813F00C0F6D
:1015D0003ED07D4B9B6803F00C03082B33D0E368AF
:1015E000002B68D0794B01221A6000F095FC05466B
:1015F000754B1B6813F0020F54D100F08DFC401B9B
:101600000228F5D903207FE16F4A136843F4803341
:101610001360B5E76C4B1A6842F480221A601A68AE
:1016200042F480321A60ABE700F076FC0546664B68
:101630001B6813F4003FC3D000F06EFC401B64280D
:10164000F5D9032060E1604B5B6813F4800FC6D1CD
:101650005D4B1B6813F0020F03D0E368012B40F0D1
:101660005081594A136823F0F803216943EAC10302
:101670001360236813F0080F42D063696BB3534BB8
:101680000122C3F8802E00F047FC05464E4B5B6FED
:1016900013F0020F34D100F03FFC401B0228F5D9B3
:1016A000032031E1484A136823F0F803216943EA33
:1016B000C1031360DDE7454B00221A6000F02CFCEB
:1016C0000546414B1B6813F0020FD2D000F024FCFA
:1016D000401B0228F5D9032016E13C4B0022C3F839
:1016E000802E00F019FC0546374B5B6F13F0020F9C
:1016F00006D000F011FC401B0228F5D9032003E1BD
:10170000236813F0040F77D02F4B1B6C13F0805F0E
:1017100033D1002301932C4B1A6C42F080521A648F
:101720001B6C03F080530193019B0125284B1B6820
:1017300013F4807F23D0A368012B34D0052B38D03D
:10174000214B1A6F22F001021A671A6F22F004026D
:101750001A67A368002B3DD000F0DEFB06461A4B4B
:101760001B6F13F0020F46D100F0D6FB801B41F235
:1017700088339842F3D90320C6E00025D6E7144AFF
:10178000136843F48073136000F0C6FB0646104BE9
:101790001B6813F4807FCED100F0BEFB801B0228B3
:1017A000F5D90320B0E0084A136F43F00103136733
:1017B000CFE7054B1A6F42F004021A671A6F42F026
:1017C00001021A67C5E700BF003802400000474227
:1017D0000070004000F0A0FB0646524B1B6F13F058
:1017E000020F08D000F098FB801B41F2883398422A
:1017F000F3D9032088E0EDB9A369002B00F08380C2
:10180000484A926802F00C02082A51D0022B17D0E5
:10181000454B00221A6600F07FFB0446414B1B68D3
:1018200013F0007F42D000F077FB001B0228F5D9AF
:10183000032069E03B4A136C23F080531364DBE719
:10184000394B00221A6600F067FB0546354B1B68D2
:1018500013F0007F06D000F05FFB401B0228F5D993
:10186000032051E0E369226A1343626A43EA821368
:10187000A26A5208013A43EA0243E26A43EA026377
:10188000284A5360284B01221A6600F045FB0446A3
:10189000244B1B6813F0007F06D100F03DFB001BBA
:1018A0000228F5D903202FE000202DE000202BE0B6
:1018B000012B2BD01B4B5B6803F48001E269914242
:1018C00026D103F03F02216A8A4223D1616A47F69A
:1018D000C0721A40B2EB811F1ED103F44031A26ADC
:1018E0005208013AB1EB024F18D103F07063E26A7B
:1018F000B3EB026F14D1002006E0012070470120F5
:1019000002E0012000E0002002B070BD0120FBE7F2
:101910000120F9E70120F7E70120F5E70120F3E7CF
:101920000120F1E7003802400000474208B5254B8E
:101930009B6803F00C03042B3FD0082B3FD1214BB5
:101940005A6802F03F025B6813F4800F12D01D4BFF
:101950005968C1F388111C480023A1FB0001FEF760
:101960009FFC184B5B68C3F3014301335B00B0FB82
:10197000F3F025E0134B5968C1F3881C4FEA4C1172
:10198000B1EB0C006EEB0E0E4FEA8E1343EA906340
:101990008101091A63EB0E03DB0043EA5173C900AE
:1019A00011EB0C0C43F10003990200234FEA8C2049
:1019B00041EA9C51FEF774FCD3E7034800E003487A
:1019C00008BD00BF0038024040787D010024F400CB
:1019D000002800F09B8070B50D4604464F4B1B68F5
:1019E00003F00F038B4208D2CBB24C4A137013683A
:1019F00003F00F038B4240F08B80236813F0020F3B
:101A000017D013F0040F04D0454A936843F4E05311
:101A10009360236813F0080F04D0414A936843F49D
:101A2000604393603E4A936823F0F003A1680B4340
:101A30009360236813F0010F32D06368012B21D02B
:101A40009A1E012A25D9364A126812F0020F61D077
:101A500033498A6822F0030213438B6000F05CFA7A
:101A600006462F4B9B6803F00C036268B3EB820FB2
:101A700016D000F051FA801B41F288339842F0D919
:101A8000032042E0264A126812F4003FE0D1012010
:101A90003BE0234A126812F0007FD9D1012034E0E4
:101AA0001E4B1B6803F00F03AB4207D9EAB21B4B76
:101AB0001A701B6803F00F03AB422DD1236813F09B
:101AC000040F06D0164A936823F4E053E1680B43F1
:101AD0009360236813F0080F07D0114A936823F42A
:101AE0006043216943EAC1039360FFF71FFF0C4B7A
:101AF0009B68C3F303130B4AD35CD8400A4B1860AE
:101B00000A4B186800F0BCF9002070BD0120704736
:101B10000120FAE70120F8E70120F6E7003C024047
:101B20000038024064420008080000200400002041
:101B300000230F2B00F2F18070B582B061E0856860
:101B40005E000324B44025EA0405CC68B4402C436D
:101B50008460456825EA02054C68C4F300129A4087
:101B60002A4342605BE0DC08083450F8246003F04C
:101B7000070295000F22AA4026EA020E0A69AA402F
:101B800042EA0E0240F824205DE0092200E0002233
:101B900002FA0EF22A430234604D45F82420604ACE
:101BA00094686FEA0C0224EA0C054E6816F4801F54
:101BB00001D04CEA04055A4CA560E46802EA040529
:101BC0004E6816F4001F01D04CEA0405544CE56041
:101BD000646802EA04054E6816F4003F01D04CEA3E
:101BE00004054F4C6560246822404D6815F4803F21
:101BF00001D04CEA04024A4C226001330F2B00F260
:101C00008A8001229A400C6804EA020C32EA040439
:101C1000F3D14C6804F00304013C012C8FD94A68CD
:101C200002F00302032A09D0C4685D000322AA401F
:101C300024EA02048A68AA402243C2604A6802F089
:101C40000302022A8FD004684FEA430E032202FAED
:101C50000EF224EA02044A6802F0030202FA0EF2CB
:101C6000224302604A6812F4403FC6D0002201922B
:101C70002C4A546C44F480445464526C02F4804204
:101C80000192019A9C08A51C244A52F8255003F0A1
:101C900003024FEA820E0F2202FA0EF225EA020533
:101CA000214A90423FF473AF02F58062904222D005
:101CB00002F58062904220D002F5806290421ED0F0
:101CC00002F5806290421CD002F5806290421AD0E8
:101CD00002F58062904218D002F58062904216D0E0
:101CE00002F58062904214D002F5806290423FF487
:101CF0004CAF0A224CE701224AE7022248E70322BE
:101D000046E7042244E7052242E7062240E707228D
:101D10003EE708223CE702B070BD70470038014042
:101D2000003C0140003802400000024003691942B3
:101D300001D001207047002070470AB181617047CF
:101D4000090481617047000010B582B0002301933F
:101D5000194B1A6C42F080521A641B6C03F08053CA
:101D60000193019B154B01221A6400F0D5F804463B
:101D7000134B5B6813F4803F08D100F0CDF8001BD3
:101D8000B0F57A7FF4D9032002B010BD0B4B0122CD
:101D90005A6400F0C1F80446094B5B6813F4003F35
:101DA00007D100F0B9F8001BB0F57A7FF4D9032011
:101DB000EAE70020E8E700BF0038024000000E42DA
:101DC00000700040074AD36823F4E0631B041B0C37
:101DD000000200F4E060034343F0BF6343F40033C8
:101DE000D360704700ED00E000B5194BDB68C3F32A
:101DF0000223C3F1070CBCF1040F28BF4FF0040C01
:101E000003F1040EBEF1060F18D9033B4FF0FF3E5D
:101E10000EFA0CFC21EA0C0199400EFA03F322EAB7
:101E20000303194300280BDB0901C9B200F160402C
:101E300000F5614080F800135DF804FB0023E5E73E
:101E400000F00F000901C9B2024B1954F4E700BFBA
:101E500000ED00E014ED00E00138B0F1807F0BD21E
:101E60004FF0E0235861054AF02182F8231000204A
:101E7000986107221A6170470120704700ED00E069
:101E800010B504460E4B18784FF47A73B3FBF0F399
:101E90000C4A1068B0FBF3F0FFF7DEFF68B90F2CB7
:101EA00001D901200AE0002221464FF0FF30FFF760
:101EB0009BFF054B1C60002000E0012010BD00BF0F
:101EC00003000020080000200400002008B50B4B90
:101ED0001A6842F400721A601A6842F480621A604A
:101EE0001A6842F480721A600320FFF76BFF0F201C
:101EF000FFF7C6FFFFF790F9002008BD003C024045
:101F0000034A1168034B1B780B441360704700BFF2
:101F10009808002003000020014B1868704700BF9C
:101F20009808002038B50446FFF7F6FF0546B4F1DF
:101F3000FF3F02D0044B1B781C44FFF7EDFF401B12
:101F4000A042FAD338BD00BF03000020034B9B68BA
:101F5000C3F30313024AD35CD840704700380240F1
:101F600064420008034B9B68C3F38223024AD35C9C
:101F7000D84070470038024074420008034B9B6809
:101F8000C3F34233024AD35CD84070470038024062
:101F9000744200080F4B5B6803F4800323B90E4BB7
:101FA000082803D0002070470C4BF9E7094A506815
:101FB00000F03F00B3FBF0F05368C3F3881303FB5A
:101FC00000F05368C3F3014301335B00B0FBF3F04F
:101FD000704700BF003802400024F40040787D01C3
:101FE00008B5084B9B6803F00C03042B05D0082BA5
:101FF00005D10820FFF7CEFF02E0034800E00348C8
:1020000008BD00BF0038024040787D010024F40084
:1020100010B50446FFF7E4FF2060FFF797FF60600C
:10202000FFF7A0FFA0606068FFF7A8FFE06010BDA9
:10203000034AD2F8883043F47003C2F888307047FE
:1020400000ED00E0DFF834D00D480E490E4A0023C1
:1020500002E0D458C4500433C4188C42F9D30B4A5C
:102060000B4C002301E013600432A242FBD3FFF7C4
:10207000DFFF00F011F8FEF7FFFE704700000320BD
:102080000000002070000020404400087000002084
:10209000B0080020FEE7000070B50D4D0D4C641B2C
:1020A000A4100026A64209D10B4D0C4C01F0C6FE2F
:1020B000641BA4100026A64205D170BD55F8043B50
:1020C00098470136EEE755F8043B98470136F2E7AA
:1020D0003844000838440008384400083C440008EC
:1020E00002440346934200D1704703F8011BF9E70D
:1020F0000FB40A4B13B51C6824B1A36913B9204669
:1021000000F028FB05AB049AA1680193204601F07A
:1021100037F802B0BDE8104004B070470C00002052
:1021200070B50E46054618B183690BB900F012FB75
:10213000AB69AC6813B9284600F00CFB2C4B9C42F1
:1021400020D16C68636EDB0705D4A389980502D49F
:10215000A06D00F09DFBA38919071DD52369DBB194
:10216000013EA36816F8011F013BA36039BB002B99
:1021700038DA22460A21284600F0F0F8013011D062
:102180000A2511E01B4B9C4201D1AC68DAE71A4BDF
:102190009C4208BFEC68D5E72146284600F042F98A
:1021A0000028DDD04FF0FF35636EDA0705D4A38930
:1021B0009B0502D4A06D00F06CFB284670BD002B7F
:1021C00004DAA2699A4206DC0A2904D023685A1C60
:1021D00022601970C5E72246284600F0BFF801309A
:1021E000BFD1DFE723680A255A1C22601D70DBE798
:1021F000A0420008C042000880420008024B01468D
:102200001868FFF78DBF00BF0C0000200EB400B5AA
:102210009CB01DAB029006906FF0004109480791F9
:102220000491094953F8042B05910068019302A910
:1022300000F0AAFC029B00221A701CB05DF804EBAF
:1022400003B070470C0000200802FFFF0EB410B569
:102250009FB021AC4FF4017154F8042B0192ADF8FA
:102260001C1004900890FDF7C3FF0C4B05900990DB
:102270000D930B48019A0068039400231193169361
:102280004FF6FF73ADF81E3004A9234600F0D6FDCB
:102290001FB0BDE8104003B0704700BFC722000860
:1022A0000C00002010B50C46B1F90E1001F07AFBBD
:1022B0000028ABBF636DA3891B1823F48053ACBF08
:1022C0006365A38110BD002070472DE9F0411F46D2
:1022D0008B89DB0505460C46164605D5B1F90E106F
:1022E0000223002200F0D6FAA389B4F90E1023F4D9
:1022F0008053A38132463B462846BDE8F04100F0BA
:102300007FB810B50C46B1F90E1000F0C3FA431CAB
:10231000A38915BF606523F4805343F48053A381E0
:1023200018BFA38110BDB1F90E1000F0E9B80A780A
:1023300070B56AB970BD9A4209D10C46054614F8C9
:10234000013F002BF6D015F8016F9E42F7D0013007
:102350000378002BEFD11846ECE70000F8B50E46E5
:102360001446054618B183690BB900F0F3F9214B07
:102370009C422BD16C68A369A360A3891A072FD54F
:1023800023696BB323692068C01A6369F6B283427C
:10239000374604DC2146284600F048F930BBA368E4
:1023A000013BA36023685A1C22601E7063690130E0
:1023B000834204D0A389DB0706D50A2E04D1214627
:1023C000284600F033F988B93846F8BD0A4B9C42DC
:1023D00001D1AC68CFE7094B9C4208BFEC68CAE763
:1023E0002146284600F01EF80028CBD04FF0FF37DA
:1023F000EAE700BFA0420008C0420008804200088F
:1024000038B5074D04460846114600222A601A4690
:10241000FEF770FE431C02D12B6803B1236038BD68
:10242000A8080020324B70B51D6806460C4625B141
:10243000AB6913B9284600F08DF92E4B9C420FD1A1
:102440006C68A389B4F90C2019072CD4DD0611D4CB
:102450000923336042F04003A3814FF0FF303EE098
:10246000254B9C4201D1AC68EBE7244B9C4208BF52
:10247000EC68E6E7580712D5616B41B104F14403FB
:10248000994202D0304600F07DFA00236363A389AD
:1024900023F02403A3810023636023692360A389BD
:1024A00043F00803A38123694BB9A38903F4207384
:1024B000B3F5007F03D02146304600F023FAA0890F
:1024C000B4F90C2010F001030AD00023A360636963
:1024D0005B42A361236943B910F08000BAD170BD9B
:1024E000810758BF6369A360F4E70020F7E700BFE6
:1024F0000C000020A0420008C042000880420008F2
:1025000038B5064D0023044608462B6001F060FCF8
:10251000431C02D12B6803B1236038BDA8080020FA
:102520008A892DE9F041054610070C4658D44B68BE
:10253000002B05DC0B6C002B02DC0020BDE8F081D9
:10254000E66A002EF9D0002312F480522F682B6027
:1025500032D0606DA3895A0705D56368C01A636BD2
:102560000BB1236CC01A00230246E66A216A284692
:10257000B047431CA38906D129681D292CD82A4AB3
:10258000CA40D60728D500226260D9042269226099
:1025900004D5421C01D12B6803B96065616B2F60C3
:1025A0000029CAD004F14403994202D0284600F021
:1025B000E9F900206063C1E7216A01232846B0479A
:1025C000411CC7D12B68002BC4D01D2B01D0162B6A
:1025D00001D12F60B1E7A38943F04003A381ADE7A8
:1025E0000F69002FA9D093070E6808BF4B690F60D1
:1025F00018BF0023A6EB07088B60B8F1000F9CDD25
:10260000216AA66A43463A462846B047002806DCB7
:10261000A38943F04003A3814FF0FF308EE70744C6
:10262000A8EB0008E9E700BF0100402038B50B69BE
:1026300005460C4613B90025284638BD18B18369F4
:102640000BB900F087F8144B9C421BD16C68B4F9AD
:102650000C30002BEFD0626ED00704D4990502D461
:10266000A06D00F015F928462146FFF759FF636E6B
:10267000DA070546E0D4A3899B05DDD4A06D00F000
:1026800008F9D9E7054B9C4201D1AC68DFE7044B60
:102690009C4208BFEC68DAE7A0420008C04200088C
:1026A00080420008002310B50446C0E90033C0E9A9
:1026B0000433836081814366C281836119460822A5
:1026C0005C30FFF70DFD054B6362054BA362054BC4
:1026D000E362054B2462236310BD00BFA5220008FE
:1026E000CB2200080323000827230008014900F03B
:1026F000AFB800BF2D26000870B568224D1E5543A7
:102700000E4605F1740100F089F9044640B100213C
:10271000C0E900160C30A06005F16802FFF7E0FC8C
:10272000204670BD014800F0B3B800BF9D080020EE
:10273000014800F0AEB800BF9D080020014800F03D
:10274000A7B800BF9E080020014800F0A2B800BF53
:102750009E08002010B50446FFF7F0FFA3691BB1E7
:10276000BDE81040FFF7F0BFC4E912332365134BF7
:10277000134A1B68A262A34204BF0123A36120463F
:1027800000F020F86060204600F01CF8A0602046B1
:1027900000F018F80022E06004216068FFF782FF73
:1027A000A06801220921FFF77DFFE06802221221C3
:1027B000FFF778FF0123A361D2E700BF7C42000846
:1027C000ED260008F8B50746FFF7ACFF1E4B1E6864
:1027D000B36913B93046FFF7BDFF4836D6E9013477
:1027E000013B03D533680BB33668F7E7B4F90C50F7
:1027F000D5B9164BE36004F15800656600F047F860
:10280000FFF796FFC4E90155C4E904552560A561A9
:102810000822294604F15C00FFF762FCC4E90D556B
:10282000C4E912552046F8BD6834D9E7042138467A
:10283000FFF762FF044630600028D5D1FFF778FF2C
:102840000C233B60EEE700BF7C4200080100FFFF65
:102850002DE9F8430646884600F148040027D4E9EC
:102860000195B9F1010905D52468002CF7D1384646
:10287000BDE8F883AB89012B07D9B5F90E300133D8
:1028800003D029463046C04707436835E9E770471B
:102890007047704738B5074D044608461146002278
:1028A0002A601A4601F0ACFA431C02D12B6803B12E
:1028B000236038BDA808002070B50E46B1F90E108F
:1028C000002996B014461D4608DAB6F90C300022ED
:1028D0002A601A0610D44FF480630EE06A4601F0B5
:1028E000F3F90028F1DB019A02F47042A2F50053DB
:1028F0005A425A412A60EEE740230020236016B076
:1029000070BD00008B8973B59D0706460C4607D540
:1029100004F14703236023610123636102B070BDAA
:1029200001AB6A46FFF7C8FF00990546304600F044
:1029300075F848B9B4F90C309A05EFD423F00303C5
:1029400043F00203A381E3E70D4BB362A389206048
:1029500043F08003A381009B6361019B20615BB115
:10296000B4F90E10304601F0C1F928B1A38923F063
:10297000030343F00103A381A0890543A581CDE7AB
:10298000ED26000837B5002944D051F8043C0190E9
:10299000002BA1F10404B8BFE41801F0DFF91E4ACE
:1029A0000198136833B96360146003B0BDE8304028
:1029B00001F0DAB9A34208D9256861198B4201BF39
:1029C00019685B6849192160EDE71A465B680BB12D
:1029D000A342FAD911685518A5420BD124682144A5
:1029E0005418A3421160E0D11C685B685360214415
:1029F0001160DAE702D90C230360D6E72568611974
:102A00008B4204BF19685B68636004BF4919216089
:102A10005460CAE703B030BDA0080020F8B5CD1C53
:102A200025F0030508350C2D38BF0C25002D064672
:102A300001DBA94203D90C2333600020F8BD01F06B
:102A40008DF921490A6814469CB9204F3B6823B987
:102A50002146304600F0B8FF38602946304600F085
:102A6000B3FF431C23D10C233360304601F07CF9C3
:102A7000E3E723685B1B17D40B2B03D923601C44AB
:102A8000256004E06368A2420CBF0B6053603046CF
:102A900001F06AF904F10B00231D20F00700C21AAF
:102AA000CCD01B1AA350C9E722466468CCE7C41CEB
:102AB00024F00304A042E3D0211A304600F084FF42
:102AC0000130DDD1CFE700BFA0080020A40800201E
:102AD0002DE9F0478E689E4282460C4690461F467E
:102AE00038D88A8912F4906F32D025680969A5EB2D
:102AF0000109656905EB450505EBD57501334B44C7
:102B00006D109D4238BF1D46530531D52946FFF74C
:102B100085FF064650B90C23CAF80030A38943F05C
:102B20004003A3814FF0FF30BDE8F08721694A469A
:102B300001F0ECF8A38923F4906343F08003A381B0
:102B4000266165614E44A5EB09052660A5603E46F9
:102B5000BE4200D93E4620683246414601F0E4F8C4
:102B6000A3689B1BA3602368334423600020DBE73A
:102B70002A4601F0FFF806460028E1D121695046B7
:102B8000FFF700FFC7E700002DE9F04F98468B895B
:102B90001B069DB007460D4614460ED50B6963B95A
:102BA0004021FFF73BFF2860286120B90C233B60E0
:102BB0004FF0FF30D1E040236B61002309932023C5
:102BC0008DF82930CDF80C803023DFF8A8818DF8FE
:102BD0002A304FF0010923469A4613F8012B0AB117
:102BE000252AF9D1BAEB040B0BD05B4622462946C5
:102BF0003846FFF76DFF013000F0AA80099A5A4469
:102C000009929AF80030002B00F0A28000234FF0C8
:102C1000FF32CDE905230AF1010A049307938DF8E9
:102C200053301A935446052214F8011B5148FDF7FE
:102C3000E7FA049AD8B9D00644BF20238DF8533060
:102C4000110744BF2B238DF853309AF800302A2BFC
:102C500015D0079A544600204FF00A0C214611F86F
:102C6000013B303B092B4ED9B0B1079214E0A0EBE9
:102C7000080309FA03F313430493A246D2E7039B24
:102C8000191D1B680391002BBBBF5B4242F002027F
:102C900007930793B8BF049223782E2B0CD1637847
:102CA0002A2B35D1039B1A1D1B680392002BB8BF3A
:102CB0004FF0FF3302340593DFF8C8A021780322D8
:102CC0005046FDF79DFA40B14023A0EB0A0003FAFD
:102CD00000F0049B03430134049314F8011B2648BD
:102CE0008DF828100622FDF78BFA002838D0234BE8
:102CF0001BBB039B073323F0070308330393099B94
:102D00003344099367E70CFB02320C460120A5E728
:102D100000230134059319464FF00A0C204610F8A1
:102D2000012B303A092A03D9002BC5D00591C3E7FE
:102D30000CFB012104460123F0E703AB00932A4674
:102D40000F4B04A93846AFF30080421C0646D6D18B
:102D5000AB895B063FF52CAF09981DB0BDE8F08F3D
:102D600003AB00932A46064B04A9384600F0A6FBA5
:102D7000EBE700BFE0420008EA4200080000000064
:102D8000D12A0008E642000838B54B1C144603D18E
:102D90004FF0FF35284638BD938923F020039381F7
:102DA000636B5268CDB28BB1A36B934208DD23688D
:102DB0005A1E226003F8015C636801336360E9E72F
:102DC000214600F041FF0028F1D0E1E721692368A6
:102DD00051B1994208D213F8011CA94204D1013B18
:102DE000013223606260D5E7C4E90F3204F1440385
:102DF00063630323A363234603F8465F2360012331
:102E0000DCE710B50C46496B69B104F14403994203
:102E100001D0FFF7B7FD236C63600020606313B13E
:102E2000E36B236010BD2369236000236360A389E3
:102E300043F02003A3814FF0FF30F3E72DE9F04783
:102E40000C46ADF5227D0021CDE94411A649A091A3
:102E50000DF10408A549A64FDFF89892CDF8188126
:102E60000646A19100931378002B00F05A81D95D9A
:102E700011F0080102F1010519D06368002B0FDD84
:102E800023681A78BA5C120701D42A46EBE7459A00
:102E90000132459262680133013A62602360ECE7D7
:102EA000A19B2146304698470028E9D0EDE7252B25
:102EB00012D09A466368002B40F391802268137801
:102EC000534540F02E816368013B6360459B0132AE
:102ED000013322604593D8E74191439153782A2BDF
:102EE00002BF1023951C41930A22AA461AF8011B1F
:102EF000A1F13003092B1DD97E480322FDF780F98B
:102F000040B10123A0EB090003FA00F0419B1843F4
:102F10004190554615F8013B782B06D8572B10D811
:102F2000252BC6D056D8002B64D0032347930A2301
:102F3000429371E0439B02FB0311303943915546A4
:102F4000D3E7A3F15802202AEFD801A151F822F0CB
:102F5000033000082B2F00082B2F000861300008D9
:102F60002B2F00082B2F00082B2F00082B2F0008D9
:102F70002B2F00082B2F00082B2F0008773000087C
:102F80004D300008DB2F0008DB2F0008DB2F000886
:102F90002B2F0008513000082B2F00082B2F000882
:102FA0002B2F00082B2F000887300008593000080D
:102FB000FB2F00082B2F00082B2F00088330000860
:102FC0002B2F00084D3000082B2F00082B2F000856
:102FD00003300008453B022BA7D805231BE0A19B2B
:102FE00021463046984700283FF468AF44980028AF
:102FF00040F08D804FF0FF308FE0419A42F0200288
:103000004192419A42F40072419210226F2B4292F7
:1030100034BF0323042347936368002B41DD419BA6
:10302000590604D423681A78BA5C120740D4479B27
:10303000022B4FDC6B46224641A9304600F064FB70
:1030400001286ED002287FF420AFCFE70A22DDE707
:10305000002342930323DEE7082342930423DAE7A5
:103060002946404600F0C0FC419B43F04003419399
:1030700005460123CFE7419B43F0400341930023E2
:10308000C9E70223C7E74198C3063FF5FEAE009BA0
:10309000459A191D00911B68C0074CBF1A801A6021
:1030A000F3E6A19B2146304698470028B7D09DE71C
:1030B000459A013245926268013A002A626002DD57
:1030C00001332360AEE7A19B214630469847002894
:1030D000A8D08BE7042B0FDC6B46224641A9304673
:1030E00000F06CFBACE700BF892D0008032E000840
:1030F0002F430008E64200080B4B002B3FF4C5AEFF
:103100006B46224641A93046AFF3008098E7A38979
:1031100013F0400F18BF4FF0FF300DF5227DBDE8D2
:10312000F0874498F9E700BF000000009368013B76
:10313000002B10B4936008DA9469A34201DB0A29DA
:1031400003D15DF8044BFFF709B91368581C1060F0
:10315000197008465DF8044B7047F8B506460F46EF
:103160001446D518AC4201D1002007E014F8011B29
:103170003A463046FFF7DAFF431CF3D1F8BD0000B2
:103180002DE9F04F0D469DB014469846064618B1FD
:1031900083690BB9FFF7DEFA894B9D421BD1756835
:1031A0006B6ED90705D4AB899A0502D4A86DFFF7D9
:1031B0006FFBAB891B0701D52B69EBB9294630465C
:1031C000FFF730F9C0B16B6EDC070ED54FF0FF3062
:1031D0001DB0BDE8F08F7B4B9D4201D1B568DFE7A4
:1031E000794B9D4208BFF568DAE7AB899805EDD4C5
:1031F000A86DFFF74EFBE9E70023099320238DF824
:103200002930CDF80C803023DFF8C0818DF82A30CA
:103210004FF0010923469A4613F8012B0AB1252ADB
:10322000F9D1BAEB040B0BD05B4622462946304657
:10323000FFF793FF013000F0AA80099A5A440992DF
:103240009AF80030002B00F0A28000234FF0FF32EC
:10325000CDE905230AF1010A049307938DF8533051
:103260001A935446052214F8011B5848FCF7C8FF6E
:10327000049AD8B9D10644BF20238DF853301307E0
:1032800044BF2B238DF853309AF800302A2B15D0E9
:10329000079A544600204FF00A0C214611F8013BD2
:1032A000303B092B4ED9B0B1079214E0A0EB0803D4
:1032B00009FA03F313430493A246D2E7039B191DB3
:1032C0001B680391002BBBBF5B4242F002020793D5
:1032D0000793B8BF049223782E2B0CD163782A2B46
:1032E00035D1039B1A1D1B680392002BB8BF4FF00A
:1032F000FF3302340593DFF8E4A02178032250461F
:10330000FCF77EFF40B14023A0EB0A0003FA00F077
:10331000049B03430134049314F8011B2C488DF8DB
:1033200028100622FCF76CFF00283FD0294B1BBB5E
:10333000039B073323F0070308330393099B3B44A4
:10334000099367E70CFB02320C460120A5E7002336
:103350000134059319464FF00A0C204610F8012B52
:10336000303A092A03D9002BC5D00591C3E70CFBDD
:10337000012104460123F0E703AB00932A46164BD4
:1033800004A93046AFF300800746781CD6D16B6E97
:10339000D90705D4AB899A0502D4A86DFFF779FA4D
:1033A000AB895B063FF512AF099811E703AB0093B9
:1033B0002A46094B04A9304600F080F8E4E700BF34
:1033C000A0420008C042000880420008E042000815
:1033D000EA420008000000005B310008E6420008F5
:1033E0002DE9F047164699468A680B69DDF820807A
:1033F0009342B8BF1346336091F8432007460C460A
:103400000AB1013333602368990642BF336802333F
:103410003360256815F0060506D104F1190AE36842
:1034200032689B1AAB4226DC94F84320131E2268B4
:1034300018BF012392062BD404F1430249463846B3
:10344000C04701301ED02368E568326803F00603E8
:10345000042B08BFAD1AA36822690CBF25EAE575E5
:1034600000259342C4BF9B1AED1800261A34B542BA
:103470001AD1002008E00123524649463846C04789
:10348000013003D14FF0FF30BDE8F0870135C6E7CA
:10349000E1185A1C302081F84300224494F845106A
:1034A00082F843100233C7E70123224649463846D3
:1034B000C0470130E6D00136D9E700002DE9FF47CB
:1034C0000F7E0C9D782F914680460C469A4601F15E
:1034D000430207D8622F0AD8002F00F0D880582F57
:1034E00000F0A38004F1420584F842703AE0A7F1AD
:1034F0006303152BF6D801A151F823F055350008C8
:1035000069350008E5340008E5340008E5340008B2
:10351000E534000869350008E5340008E5340008A2
:10352000E5340008E53400087536000899350008D0
:1035300057360008E5340008E534000897360008DF
:10354000E534000899350008E5340008E534000842
:103550005F3600082B681A1D1B682A6004F14205BB
:1035600084F842300123A3E020682968060601F1AF
:1035700004030AD50E682B60002E03DA2D23764251
:1035800084F843305E480A2319E00E682B6010F07F
:10359000400F18BF36B2EFE72B682068191D29606D
:1035A000010601D51E6802E04606FBD51E88544878
:1035B0006F2F0CBF08230A23002184F8431065688D
:1035C000A560002DA2BF216821F0040121600EB981
:1035D000002D4DD01546B6FBF3F103FB1167C75D17
:1035E00005F8017D3746BB420E46F4D9082B0BD1B6
:1035F0002368DE0708D5236961689942DEBF30235E
:1036000005F8013C05F1FF35521B2261CDF800A001
:103610004B4603AA21464046FFF7E2FE01304CD15B
:103620004FF0FF3004B0BDE8F087354881F84570B1
:103630002968236851F8046B29601D0614D5DF073B
:1036400044BF43F0200323601EB9236823F0200306
:1036500023601023B0E7236843F02003236078231E
:10366000284884F84530E3E7590648BFB6B2E6E794
:103670001546BBE72B6826686169181D286035066A
:103680001B6801D5196002E07006FBD51980002384
:1036900023611546BAE72B681A1D2A601D68626807
:1036A00000212846FCF7ACFD08B1401B6060636850
:1036B0002361002384F84330A8E723692A4649465A
:1036C0004046D0470130ABD023689B0713D4E06855
:1036D000039B9842B8BF1846A4E7012332464946E7
:1036E0004046D04701309BD00135E36803995B1A0F
:1036F000AB42F2DCEBE7002504F11906F5E700BF69
:10370000F1420008024300082DE9F84315468A6893
:1037100080460C4632B98A69002A0CBF01224FF05C
:10372000FF328A602268DFF89090D1065FBF1A6886
:10373000111D196016680027A06988B1012807D1FA
:103740002A6811786269525C52B9002F31D022E0A8
:10375000022820D12B681B7813F809301B071AD4D4
:103760002368DA065EBF2B681B7806F8013B2A68DF
:103770006B6801322A60A268013B013A6B60013735
:10378000A26042B1002BD7DCD4F8803129464046F4
:1037900098470028D0D0236813F0100305D1E268C1
:1037A0000132E260A26902B1337023693B442361B4
:1037B0000020BDE8F88300BF2F4300082DE9F04F3B
:1037C0009846744B0C468246164693E8070087B02D
:1037D00003AB83E80700704BA169704A032918BF47
:1037E0001A46A36801925A1EB2F5AE7F88BF6FF4E5
:1037F000AE75274682BF03EB050940F25D13A36057
:1038000057F81C3B43F4506398BF4FF00009236006
:103810003D464FF0000B316803AB097853F82B009D
:103820000222FCF7EDFC28B3BBF1010F59D162680D
:103830002AB92268082342F4007263602260226879
:1038400022F4A0622260A268511EA16092B1326887
:10385000511C3160127805F8012B7268013A002A78
:10386000726007DCD4F8802131465046904700282A
:1038700040F085800BF1010BBBF1030FCBD16368E6
:103880000BB90A236360636845496069C91A00F08F
:10389000ABF84FF0000BA3682268002B3DD03168D5
:1038A000606991F800C010F80C00002835D0BCF118
:1038B000300F24D1100522D50BF1010BB9F1000F07
:1038C00003D0013309F1FF39A3607368013B002B7A
:1038D00073601BDD336801333360A368013BA36071
:1038E000D9E7BBF1020FAED1226802F4C061B1F595
:1038F000007FBFD11023636042F48072A2E722F4FC
:10390000106222600B7805F8013BDEE7D4F88031C5
:103910003146504698470028DFD02368D9050DD599
:10392000BD4209D915F8011CD4F87C313246504605
:10393000984705F1FF394D46BD4228D0226812F064
:10394000100213D12A706368019E39465046B04771
:10395000D8F8003021681A1DC8F8002011F0200F97
:103960001B680FD01860E3680133E360ED1BAB44C4
:1039700025695D442561002007B0BDE8F08F4FF058
:10398000000BCAE7CA074CBF18801860EBE701209C
:10399000F2E700BF543E0008453C00085D3B0008CC
:1039A0002C43000838B5074D04460846114600224E
:1039B0002A601A4600F02CFA431C02D12B6803B18E
:1039C000236038BDA808002038B5064D0023044602
:1039D00008462B6000F024FA431C02D12B6803B187
:1039E000236038BDA808002070B50B7804465E2B14
:1039F0000BBF4B78481C881C002208BF0122611EA7
:103A000004F1FF0501F8012FA942FBD10BB90138E0
:103A100070BD82F00102E2540546284610F8011BF1
:103A20002D2906D05D29F3D009B92846F0E70B46C9
:103A3000F1E76E785D2EFAD0B342F8DC0235194614
:103A400001318E426254FBDCF11A0139581CB34239
:103A5000A8BF00214318E0E7012B2DE9F04701D072
:103A6000242B06D900F02AF9162303600020BDE8B4
:103A7000F087DFF8E4C00D462E4615F8014B14F828
:103A80000C7017F00807F7D12D2C32D12C780127B4
:103A9000B51C002B5BD0102B09D1302C07D12C7812
:103AA00004F0DF04582C4DD16C781023023507F157
:103AB000004808F1FF384FF0000CB8FBF3F96646F8
:103AC00003FB198AA4F1300EBEF1090F16D8744613
:103AD000A34224DDBCF1000F1EDBB1451CD301D194
:103AE000A24519DB06FB03464FF0010C15F8014B0C
:103AF000E8E72B2C04BF2C78B51CCAE7A4F1410ED3
:103B0000BEF1190F01D8373CE2E7A4F1610EBEF116
:103B1000190F04D8573CDBE74FF0FF3CE6E7BCF158
:103B2000000F05DA22230360464642B930469EE77D
:103B300007B17642002AF9D0BCF1000F00D0691E0F
:103B40001160F3E73024002BB1D10823AFE7302C0C
:103B5000A5D00A23ABE700BF2F430008FFF77CBFC7
:103B60002DE9F043364F86460D46284615F8014BA1
:103B7000E65D16F00806F8D12D2C2FD12C78012601
:103B8000851C002B57D0102B09D1302C07D1287859
:103B900000F0DF00582849D16C78102302354FF02F
:103BA000FF380027B8FBF3F803FB08F96FEA0909AF
:103BB0003846A4F1300CBCF1090F14D86446A34276
:103BC00022DD002F1DDB80451BD301D1A14518DB71
:103BD00000FB0340012715F8014BEAE72B2C04BF3B
:103BE0002C78851CCDE7A4F1410CBCF1190F01D84C
:103BF000373CE4E7A4F1610CBCF1190F04D8573C41
:103C0000DDE74FF0FF37E6E7002F07DA2223CEF893
:103C100000304FF0FF3032B9BDE8F08306B14042CA
:103C2000002AF9D007B1691E1160F5E73024002B96
:103C3000B5D10823B3E7302CA9D00A23AFE700BFE2
:103C40002F430008FFF78CBF2DE9F0410C46496B6C
:103C500004F1440399421DD14FF48061FEF7DEFE6A
:103C600018B94FF0FF30BDE8F0814FF48063A363D3
:103C700094F84630606380F8FF3394F8453080F85C
:103C8000FE3394F8443080F8FD3300F2FD302060BC
:103C90000020E8E7A66B77003A4600F06BF805468F
:103CA0000028DED000EB060801463246404600F010
:103CB0002DF8C4E90D57C4F80080E9E7014B1868F6
:103CC000704700BF0C00002038B5074D00230446A4
:103CD000084611462B6000F083F8431C02D12B6884
:103CE00003B1236038BD00BFA808002038B5064DD9
:103CF0000023044608462B6000F07AF8431C02D1EA
:103D00002B6803B1236038BDA80800200A44914203
:103D100000F1FF3300D1704710B511F8014B03F8E3
:103D2000014F9142F9D110BD884210B501EB020458
:103D300002D98442234607D8431EA14208D011F875
:103D4000012B03F8012FF8E7024401468A4200D113
:103D500010BD13F8014D02F8014DF7E70148FEF7D9
:103D600097BD00BF9C0800200148FEF792BD00BF30
:103D70009C080020F8B5074614460E4621B9BDE858
:103D8000F8401146FEF74ABE22B9FEF7FBFD254674
:103D90002846F8BD00F014F8A0420FD2214638465C
:103DA000FEF73CFE05460028F2D031462246FFF7DA
:103DB000ADFF31463846FEF7E5FDE9E73546E7E772
:103DC00051F8043C181F002BBCBF0B58C01870479B
:103DD000024B58221A604FF0FF307047A8080020AD
:103DE000024B58221A604FF0FF307047A80800209D
:103DF000024B58221A600020704700BFA80800201C
:103E0000024B58221A604FF0FF307047A80800207C
:103E1000024B58221A604FF0FF307047A80800206C
:103E2000044A05491368002B08BF0B46184410606C
:103E300018467047AC080020B0080020F8B500BF55
:103E4000F8BC08BC9E467047F8B500BFF8BC08BC7B
:043E50009E467047D3
:103E54001343000816430008194300086E616D659A
:103E640000000000255B5E225D0000006369747938
:103E74003A2025730A00000074657874000000007D
:103E840074656D703A2025730A00000074656D70C6
:103E940065726174757265006C6173745F757064CA
:103EA40061746500255B5E545D00000074656D708F
:103EB4003A2025730A0A0A000D0AE6ADA3E59CA878
:103EC400E9858DE7BDAE2045535038323636202E75
:103ED4002E2E2E2E2E0D00000D0AE4BDBFE883BD4C
:103EE40045535038323636202E2E2E2E2E2E0D00CF
:103EF4000D0AE6ADA3E59CA8E9858DE7BDAEE5B75F
:103F0400A5E4BD9CE6A8A1E5BC8F3A20535441200A
:103F14002E2E2E2E2E2E0D000D0AE6ADA3E59CA806
:103F2400E8BF9EE68EA52057694669202E2E2E2EC8
:103F34002E2E0D00683132333435362E0000000049
:103F44005265646D69204B34300000000D0AE7A609
:103F540081E6ADA2E5A49AE8BF9EE68EA5202E2EAA
:103F64002E2E2E2E0D0000000D0AE6ADA3E59CA812
:103F7400E8BF9EE68EA5E69C8DE58AA1E599A8207A
:103F84002E2E2E2E2E2E0D00383000006170692E3C
:103F940073656E6976657273652E636F6D000000DC
:103FA4000D0AE8BF9BE585A5E9808FE4BCA0E58FF9
:103FB40091E98081E6A8A1E5BC8F202E2E2E2E2E1D
:103FC4002E0D00000D0AE9858DE7BDAE2045535046
:103FD4003832363620E5AE8CE6AF950D0000000091
:103FE4000D0AE5BC80E5A78BE9808FE4BCA02E2EEA
:103FF4002E2E2E2E0D0000000D0A5265636F6E6E7C
:10400400656374696E6720746F20686F7473706F72
:104014007420616E6420736572766572202E2E2E74
:104024002E2E2E0D000000000D0A5265636F6E6E79
:1040340065637420746F20686F7473706F7420618B
:104044006E6420736572766572207375636365733D
:104054007366756C6C790D0025730D0A0000000001
:104064000D0A415420746573742E2E2E2E2E0D00CD
:104074000D0A41542054657374696E672066726535
:104084007175656E63793A2025642E2E2E2E2E2EA0
:104094000D0A00004F4B0000415400000D0A41542A
:1040A400205465737420737461727465642073752D
:1040B400636365737366756C6C793A2025642E2E80
:1040C4002E2E2E2E0D0A00006E6F206368616E671F
:1040D4006500000041542B43574D4F44453D31008A
:1040E40041542B43574D4F44453D320041542B43DB
:1040F400574D4F44453D330041542B43574A41509B
:104104003D222573222C22257322000041542B4387
:1041140049504D55583D256400000000544350005B
:10412400222573222C222573222C257300000000E3
:104134005544500041542B43495053544152543D2B
:1041440025642C257300000041542B4349505354DB
:104154004152543D25730000414C5245415920437E
:104164004F4E4E454354000041542B434950535441
:1041740041545553000000005354415455533A32AE
:104184000D0A00005354415455533A330D0A0000AC
:104194005354415455533A340D0A000041542B43AF
:1041A40049504D4F44453D31000000003E000000A1
:1041B40041542B43495053454E4400002B2B2B00B4
:1041C400E68C89E4B88BE68C89E994AEE88EB7E591
:1041D4008F96E5A4A9E6B09400000000474554205A
:1041E40068747470733A2F2F6170692E73656E69E9
:1041F40076657273652E636F6D2F76332F776561E5
:10420400746865722F6E6F772E6A736F6E3F6B657D
:10421400793D53426B306E48586361415062444368
:10422400394C39266C6F636174696F6E3D7A6865C9
:104234006E677A686F75266C616E67756167653D38
:104244007A682D48616E7326756E69743D630D0A34
:1042540000000000434C4F5345440D0A0000000089
:104264000000000000000000010203040607080922
:104274000000000001020304100000200000000000
:10428400000000000000000000000000000000002A
:10429400000000000000000000000000000000001A
:1042A400000000000000000000000000000000000A
:1042B40000000000000000000000000000000000FA
:1042C40000000000000000000000000000000000EA
:1042D400000000000000000000000000232D302B2F
:1042E4002000686C4C0065666745464700303132F3
:1042F400333435363738394142434445460030314A
:104304003233343536373839616263646566002B7D
:104314002D00303000785800412D46612D66383923
:1043240030313233343536375D00002020202020F0
:104334002020202028282828282020202020202051
:104344002020202020202020202020881010101041
:104354001010101010101010101010040404040495
:1043640004040404041010101010101041414141C1
:1043740041410101010101010101010101010101A9
:1043840001010101010110101010101042424242BB
:104394004242020202020202020202020202020279
:1043A400020202020202101010102000000000009D
:1043B40000000000000000000000000000000000F9
:1043C40000000000000000000000000000000000E9
:1043D40000000000000000000000000000000000D9
:1043E40000000000000000000000000000000000C9
:1043F40000000000000000000000000000000000B9
:1044040000000000000000000000000000000000A8
:104414000000000000000000000000000000000098
:0C4424000000000000000000000000008C
:08443000A0BEFF7F01000000A7
:04443800D5010008A2
:04443C00B1010008C2
:104440000D0A0101100000000024F40010000020FB
:1044500000000000A0420008C0420008804200089E
:10446000000000000000000000000000000000004C
:10447000000000000000000000000000000000003C
:10448000000000000000000000000000000000002C
:10449000000000000000000000000000000000001C
:1044A000000000000000000000000000000000000C
:04000005080020458A
:00000001FF
